Component: ARM Compiler 5.05 update 1 (build 106) Tool: armlink [4d0efa]

==============================================================================

Section Cross References

    main.o(i.Gps_Msg_Show) refers to _printf_pad.o(.text) for _printf_pre_padding
    main.o(i.Gps_Msg_Show) refers to _printf_percent.o(.ARM.Collect$$_printf_percent$$00000000) for _printf_percent
    main.o(i.Gps_Msg_Show) refers to _printf_f.o(.ARM.Collect$$_printf_percent$$00000003) for _printf_f
    main.o(i.Gps_Msg_Show) refers to _printf_c.o(.ARM.Collect$$_printf_percent$$00000013) for _printf_c
    main.o(i.Gps_Msg_Show) refers to printf1.o(x$fpl$printf1) for _printf_fp_dec
    main.o(i.Gps_Msg_Show) refers to _printf_str.o(.text) for _printf_str
    main.o(i.Gps_Msg_Show) refers to _printf_s.o(.ARM.Collect$$_printf_percent$$00000014) for _printf_s
    main.o(i.Gps_Msg_Show) refers to _printf_d.o(.ARM.Collect$$_printf_percent$$00000009) for _printf_d
    main.o(i.Gps_Msg_Show) refers to _printf_dec.o(.text) for _printf_int_dec
    main.o(i.Gps_Msg_Show) refers to fflt_clz.o(x$fpl$ffltu) for __aeabi_ui2f
    main.o(i.Gps_Msg_Show) refers to fdiv.o(x$fpl$fdiv) for __aeabi_fdiv
    main.o(i.Gps_Msg_Show) refers to f2d.o(x$fpl$f2d) for __aeabi_f2d
    main.o(i.Gps_Msg_Show) refers to __2sprintf.o(.text) for __2sprintf
    main.o(i.Gps_Msg_Show) refers to lcd.o(i.LCD_ShowString) for LCD_ShowString
    main.o(i.Gps_Msg_Show) refers to fflt_clz.o(x$fpl$fflt) for __aeabi_i2f
    main.o(i.Gps_Msg_Show) refers to lcd.o(.data) for POINT_COLOR
    main.o(i.Gps_Msg_Show) refers to main.o(.bss) for .bss
    main.o(i.Gps_Msg_Show) refers to main.o(.data) for .data
==============================================================================

Removing Unused input sections from the image.

    Removing system_stm32f10x.o(i.SystemCoreClockUpdate), (104 bytes).
    Removing core_cm3.o(.emb_text), (32 bytes).
    Removing key.o(i.KEY_Scan), (204 bytes).
    Removing key.o(.data), (1 bytes).
    Removing lcd.o(i.LCD_BGR2RGB), (18 bytes).
    Removing lcd.o(i.LCD_Color_Fill), (88 bytes).
    Removing lcd.o(i.LCD_DisplayOff), (76 bytes).
    Removing lcd.o(i.LCD_DisplayOn), (76 bytes).
    Removing lcd.o(i.LCD_DrawLine), (150 bytes).
    Removing lcd.o(i.LCD_DrawPoint), (28 bytes).
    Removing lcd.o(i.LCD_DrawRectangle), (56 bytes).
    Removing lcd.o(i.LCD_Draw_Circle), (176 bytes).
    Removing lcd.o(i.LCD_Pow), (16 bytes).
    Removing lcd.o(i.LCD_ReadPoint), (264 bytes).
    Removing lcd.o(i.LCD_Set_Window), (380 bytes).
    Removing lcd.o(i.LCD_ShowNum), (118 bytes).
    Removing lcd.o(i.LCD_ShowxNum), (134 bytes).
    Removing lcd.o(i.LCD_WR_DATA), (12 bytes).
==============================================================================

Image Symbol Table

    Local Symbols

    Symbol Name                              Value     Ov Type        Size  Object(Section)

    ../clib/angel/boardlib.s                 0x00000000   Number         0  boardshut.o ABSOLUTE
    ../clib/angel/boardlib.s                 0x00000000   Number         0  boardinit3.o ABSOLUTE
    ../clib/angel/boardlib.s                 0x00000000   Number         0  boardinit2.o ABSOLUTE
    ../clib/angel/boardlib.s                 0x00000000   Number         0  boardinit1.o ABSOLUTE
    ../clib/angel/dczerorl2.s                0x00000000   Number         0  __dczerorl2.o ABSOLUTE
    ../clib/angel/handlers.s                 0x00000000   Number         0  __scatter_zi.o ABSOLUTE
    ../clib/angel/kernel.s                   0x00000000   Number         0  __rtentry2.o ABSOLUTE
    ../clib/angel/kernel.s                   0x00000000   Number         0  __rtentry4.o ABSOLUTE
    ../clib/angel/kernel.s                   0x00000000   Number         0  rtexit.o ABSOLUTE
    ../clib/angel/kernel.s                   0x00000000   Number         0  rtexit2.o ABSOLUTE
    ../clib/angel/kernel.s                   0x00000000   Number         0  __rtentry.o ABSOLUTE
    ../clib/angel/rt.s                       0x00000000   Number         0  rt_locale.o ABSOLUTE
    ../clib/angel/rt.s                       0x00000000   Number         0  rt_locale_intlibspace.o ABSOLUTE
    ../clib/angel/rt.s                       0x00000000   Number         0  rt_ctype_table.o ABSOLUTE
    ../clib/angel/rt.s                       0x00000000   Number         0  rt_raise.o ABSOLUTE
    ../clib/angel/scatter.s                  0x00000000   Number         0  __scatter.o ABSOLUTE
    ../clib/angel/startup.s                  0x00000000   Number         0  __main.o ABSOLUTE
    ../clib/angel/sys.s                      0x00000000   Number         0  libspace.o ABSOLUTE
    ../clib/angel/sys.s                      0x00000000   Number         0  sys_stackheap_outer.o ABSOLUTE
    ../clib/angel/sys.s                      0x00000000   Number         0  indicate_semi.o ABSOLUTE
    ../clib/angel/sys.s                      0x00000000   Number         0  use_no_semi.o ABSOLUTE
    ../clib/angel/sys.s                      0x00000000   Number         0  use_no_semi_2.o ABSOLUTE
    ../clib/angel/sysapp.c                   0x00000000   Number         0  sys_wrch.o ABSOLUTE
    ../clib/angel/sysapp.c                   0x00000000   Number         0  sys_command.o ABSOLUTE
    ../clib/armsys.c                         0x00000000   Number         0  argv_veneer.o ABSOLUTE
    ../clib/armsys.c                         0x00000000   Number         0  _get_argv_nomalloc.o ABSOLUTE
    ../clib/armsys.c                         0x00000000   Number         0  no_argv.o ABSOLUTE
    ../clib/armsys.c                         0x00000000   Number         0  argv_veneer.o ABSOLUTE
    ../clib/bigflt.c                         0x00000000   Number         0  bigflt0.o ABSOLUTE
    ../clib/btod.s                           0x00000000   Number         0  btod.o ABSOLUTE
    ../clib/heapalloc.c                      0x00000000   Number         0  hrguard.o ABSOLUTE
    ../clib/heapaux.c                        0x00000000   Number         0  heapauxi.o ABSOLUTE
    ../clib/libinit.s                        0x00000000   Number         0  libshutdown2.o ABSOLUTE
    ../clib/libinit.s                        0x00000000   Number         0  libshutdown.o ABSOLUTE
    ../clib/libinit.s                        0x00000000   Number         0  libinit2.o ABSOLUTE
    ../clib/libinit.s                        0x00000000   Number         0  libinit.o ABSOLUTE
    ../clib/locale.c                         0x00000000   Number         0  _wcrtomb.o ABSOLUTE
    ../clib/locale.s                         0x00000000   Number         0  lc_numeric_c.o ABSOLUTE
    ../clib/locale.s                         0x00000000   Number         0  lc_ctype_c.o ABSOLUTE
    ../clib/longlong.s                       0x00000000   Number         0  lludiv10.o ABSOLUTE
    ../clib/memcpset.s                       0x00000000   Number         0  rt_memclr_w.o ABSOLUTE
    ../clib/memcpset.s                       0x00000000   Number         0  strcmpv7m.o ABSOLUTE
    ../clib/memcpset.s                       0x00000000   Number         0  rt_memclr.o ABSOLUTE
    ../clib/misc.s                           0x00000000   Number         0  printf_stubs.o ABSOLUTE
    ../clib/printf.c                         0x00000000   Number         0  _printf_wchar.o ABSOLUTE
    ../clib/printf.c                         0x00000000   Number         0  __printf_nopercent.o ABSOLUTE
    ../clib/printf.c                         0x00000000   Number         0  _printf_fp_infnan.o ABSOLUTE
    ../clib/printf.c                         0x00000000   Number         0  __printf_flags_ss_wp.o ABSOLUTE
    ../clib/printf.c                         0x00000000   Number         0  __printf_ss_wp.o ABSOLUTE
    ../clib/printf.c                         0x00000000   Number         0  __printf_wp.o ABSOLUTE
    ../clib/printf.c                         0x00000000   Number         0  __printf_flags_wp.o ABSOLUTE
    ../clib/printf.c                         0x00000000   Number         0  __printf_flags_ss.o ABSOLUTE
    ../clib/printf.c                         0x00000000   Number         0  __printf_ss.o ABSOLUTE
    ../clib/printf.c                         0x00000000   Number         0  __printf_flags.o ABSOLUTE
    ../clib/printf.c                         0x00000000   Number         0  _printf_hex_int_ll_ptr.o ABSOLUTE
    ../clib/printf.c                         0x00000000   Number         0  _printf_hex_ll_ptr.o ABSOLUTE
    ../clib/printf.c                         0x00000000   Number         0  _printf_hex_int_ptr.o ABSOLUTE
    ../clib/printf.c                         0x00000000   Number         0  _printf_hex_ptr.o ABSOLUTE
    ../clib/printf.c                         0x00000000   Number         0  _printf_hex_int_ll.o ABSOLUTE
    ../clib/printf.c                         0x00000000   Number         0  _printf_hex_int.o ABSOLUTE
    ../clib/printf.c                         0x00000000   Number         0  _printf_hex_ll.o ABSOLUTE
    ../clib/printf.c                         0x00000000   Number         0  _printf_dec.o ABSOLUTE
    ../clib/printf.c                         0x00000000   Number         0  _printf_str.o ABSOLUTE
    ../clib/printf.c                         0x00000000   Number         0  _printf_pad.o ABSOLUTE
    ../clib/printf.c                         0x00000000   Number         0  __printf.o ABSOLUTE
    ../clib/printf.c                         0x00000000   Number         0  noretval__2sprintf.o ABSOLUTE
    ../clib/printf.c                         0x00000000   Number         0  noretval__2printf.o ABSOLUTE
    ../clib/printf.c                         0x00000000   Number         0  _printf_truncate.o ABSOLUTE
    ../clib/printf.c                         0x00000000   Number         0  __2sprintf.o ABSOLUTE
    ../clib/printf.c                         0x00000000   Number         0  _printf_intcommon.o ABSOLUTE
    ../clib/printf.c                         0x00000000   Number         0  __2printf.o ABSOLUTE
    ../clib/printf.c                         0x00000000   Number         0  c89vsprintf.o ABSOLUTE
    ../clib/printf.c                         0x00000000   Number         0  c89printf.o ABSOLUTE
    ../clib/printf.c                         0x00000000   Number         0  _printf_charcount.o ABSOLUTE
    ../clib/printf.c                         0x00000000   Number         0  _printf_fp_dec.o ABSOLUTE
    ../clib/printf.c                         0x00000000   Number         0  _printf_char_common.o ABSOLUTE
    ../clib/printf.c                         0x00000000   Number         0  _sputc.o ABSOLUTE
    ../clib/printf.c                         0x00000000   Number         0  _printf_char.o ABSOLUTE
    ../clib/printf.c                         0x00000000   Number         0  _printf_char_file.o ABSOLUTE
    ../clib/printf.c                         0x00000000   Number         0  _printf_wctomb.o ABSOLUTE
    ../clib/printf.c                         0x00000000   Number         0  _printf_longlong_dec.o ABSOLUTE
    ../clib/printf.c                         0x00000000   Number         0  _printf_oct_ll.o ABSOLUTE
    ../clib/printf.c                         0x00000000   Number         0  _printf_oct_int.o ABSOLUTE
    ../clib/printf.c                         0x00000000   Number         0  _printf_oct_int_ll.o ABSOLUTE
    ../clib/printf_percent.s                 0x00000000   Number         0  _printf_llx.o ABSOLUTE
    ../clib/printf_percent.s                 0x00000000   Number         0  _printf_e.o ABSOLUTE
    ../clib/printf_percent.s                 0x00000000   Number         0  _printf_g.o ABSOLUTE
    ../clib/printf_percent.s                 0x00000000   Number         0  _printf_p.o ABSOLUTE
    ../clib/printf_percent.s                 0x00000000   Number         0  _printf_a.o ABSOLUTE
    ../clib/printf_percent.s                 0x00000000   Number         0  _printf_percent_end.o ABSOLUTE
    ../clib/printf_percent.s                 0x00000000   Number         0  _printf_c.o ABSOLUTE
    ../clib/printf_percent.s                 0x00000000   Number         0  _printf_s.o ABSOLUTE
    ../clib/printf_percent.s                 0x00000000   Number         0  _printf_x.o ABSOLUTE
    ../clib/printf_percent.s                 0x00000000   Number         0  _printf_o.o ABSOLUTE
    ../clib/printf_percent.s                 0x00000000   Number         0  _printf_d.o ABSOLUTE
    ../clib/printf_percent.s                 0x00000000   Number         0  _printf_u.o ABSOLUTE
    ../clib/printf_percent.s                 0x00000000   Number         0  _printf_f.o ABSOLUTE
    ../clib/printf_percent.s                 0x00000000   Number         0  _printf_percent.o ABSOLUTE
    ../clib/printf_percent.s                 0x00000000   Number         0  _printf_i.o ABSOLUTE
    ../clib/printf_percent.s                 0x00000000   Number         0  _printf_lli.o ABSOLUTE
    ../clib/printf_percent.s                 0x00000000   Number         0  _printf_n.o ABSOLUTE
    ../clib/printf_percent.s                 0x00000000   Number         0  _printf_lld.o ABSOLUTE
    ../clib/printf_percent.s                 0x00000000   Number         0  _printf_llu.o ABSOLUTE
    ../clib/printf_percent.s                 0x00000000   Number         0  _printf_ll.o ABSOLUTE
    ../clib/printf_percent.s                 0x00000000   Number         0  _printf_l.o ABSOLUTE
    ../clib/printf_percent.s                 0x00000000   Number         0  _printf_lc.o ABSOLUTE
    ../clib/printf_percent.s                 0x00000000   Number         0  _printf_ls.o ABSOLUTE
    ../clib/printf_percent.s                 0x00000000   Number         0  _printf_llo.o ABSOLUTE
    ../clib/signal.c                         0x00000000   Number         0  defsig_rtmem_formal.o ABSOLUTE
    ../clib/signal.c                         0x00000000   Number         0  defsig_cppl_inner.o ABSOLUTE
    ../clib/signal.c                         0x00000000   Number         0  defsig_fpe_inner.o ABSOLUTE
    ../clib/signal.c                         0x00000000   Number         0  defsig_exit.o ABSOLUTE
    ../clib/signal.c                         0x00000000   Number         0  defsig_rtred_inner.o ABSOLUTE
    ../clib/signal.c                         0x00000000   Number         0  defsig_stak_inner.o ABSOLUTE
    ../clib/signal.c                         0x00000000   Number         0  defsig_rtmem_inner.o ABSOLUTE
    ../clib/signal.c                         0x00000000   Number         0  defsig_pvfn_inner.o ABSOLUTE
    ../clib/signal.c                         0x00000000   Number         0  __raise.o ABSOLUTE
    ../clib/signal.c                         0x00000000   Number         0  defsig_other.o ABSOLUTE
    ../clib/signal.c                         0x00000000   Number         0  defsig_abrt_inner.o ABSOLUTE
    ../clib/signal.c                         0x00000000   Number         0  defsig_rtmem_outer.o ABSOLUTE
    ../clib/signal.c                         0x00000000   Number         0  defsig_segv_inner.o ABSOLUTE
    ../clib/signal.c                         0x00000000   Number         0  defsig_general.o ABSOLUTE
    ../clib/signal.s                         0x00000000   Number         0  defsig.o ABSOLUTE
    ../clib/stdio.c                          0x00000000   Number         0  ferror_locked.o ABSOLUTE
    ../clib/stdio.c                          0x00000000   Number         0  ferror.o ABSOLUTE
    ../clib/stdlib.c                         0x00000000   Number         0  exit.o ABSOLUTE
    ../clib/string.c                         0x00000000   Number         0  strcat.o ABSOLUTE
    ../clib/string.c                         0x00000000   Number         0  strstr.o ABSOLUTE
    ../clib/string.c                         0x00000000   Number         0  strlen.o ABSOLUTE
    ../fplib/dfixu.s                         0x00000000   Number         0  dfixu.o ABSOLUTE
    ../fplib/dflt.s                          0x00000000   Number         0  dflt_clz.o ABSOLUTE
    ../fplib/dmul.s                          0x00000000   Number         0  dmul.o ABSOLUTE
    ../fplib/dnaninf.s                       0x00000000   Number         0  dnaninf.o ABSOLUTE
    ../fplib/dretinf.s                       0x00000000   Number         0  dretinf.o ABSOLUTE
    ../fplib/f2d.s                           0x00000000   Number         0  f2d.o ABSOLUTE
    ../fplib/faddsub.s                       0x00000000   Number         0  faddsub_clz.o ABSOLUTE
    ../fplib/fdiv.s                          0x00000000   Number         0  fdiv.o ABSOLUTE
    ../fplib/ffixu.s                         0x00000000   Number         0  ffixu.o ABSOLUTE
    ../fplib/fflt.s                          0x00000000   Number         0  fflt_clz.o ABSOLUTE
    ../fplib/fmul.s                          0x00000000   Number         0  fmul.o ABSOLUTE
    ../fplib/fnaninf.s                       0x00000000   Number         0  fnaninf.o ABSOLUTE
    ../fplib/fpinit.s                        0x00000000   Number         0  fpinit.o ABSOLUTE
    ../fplib/fretinf.s                       0x00000000   Number         0  fretinf.o ABSOLUTE
    ../fplib/istatus.s                       0x00000000   Number         0  istatus.o ABSOLUTE
    ../fplib/printf1.s                       0x00000000   Number         0  printf1.o ABSOLUTE
    ../fplib/usenofp.s                       0x00000000   Number         0  usenofp.o ABSOLUTE
    ../mathlib/fpclassify.c                  0x00000000   Number         0  fpclassify.o ABSOLUTE
    ..\CORE\core_cm3.c                       0x00000000   Number         0  core_cm3.o ABSOLUTE
    ..\CORE\startup_stm32f10x_hd.s           0x00000000   Number         0  startup_stm32f10x_hd.o ABSOLUTE
    ..\HARDWARE\BC28\BC28.c                  0x00000000   Number         0  bc28.o ABSOLUTE
    ..\HARDWARE\GPS\gps.c                    0x00000000   Number         0  gps.o ABSOLUTE
    ..\HARDWARE\KEY\key.c                    0x00000000   Number         0  key.o ABSOLUTE
    ..\HARDWARE\LCD\lcd.c                    0x00000000   Number         0  lcd.o ABSOLUTE
    ..\HARDWARE\LED\led.c                    0x00000000   Number         0  led.o ABSOLUTE
    ..\HARDWARE\TIMER\timer.c                0x00000000   Number         0  timer.o ABSOLUTE
    ..\HARDWARE\USART2\usart2.c              0x00000000   Number         0  usart2.o ABSOLUTE
    ..\HARDWARE\USART3\usart3.c              0x00000000   Number         0  usart3.o ABSOLUTE
    ..\STM32F10x_FWLib\src\misc.c            0x00000000   Number         0  misc.o ABSOLUTE
    ..\STM32F10x_FWLib\src\stm32f10x_fsmc.c  0x00000000   Number         0  stm32f10x_fsmc.o ABSOLUTE
    ..\STM32F10x_FWLib\src\stm32f10x_gpio.c  0x00000000   Number         0  stm32f10x_gpio.o ABSOLUTE
    ..\STM32F10x_FWLib\src\stm32f10x_pwr.c   0x00000000   Number         0  stm32f10x_pwr.o ABSOLUTE
    ..\STM32F10x_FWLib\src\stm32f10x_rcc.c   0x00000000   Number         0  stm32f10x_rcc.o ABSOLUTE
    ..\STM32F10x_FWLib\src\stm32f10x_tim.c   0x00000000   Number         0  stm32f10x_tim.o ABSOLUTE
    ..\STM32F10x_FWLib\src\stm32f10x_usart.c 0x00000000   Number         0  stm32f10x_usart.o ABSOLUTE
    ..\SYSTEM\delay\delay.c                  0x00000000   Number         0  delay.o ABSOLUTE
    ..\SYSTEM\sys\sys.c                      0x00000000   Number         0  sys.o ABSOLUTE
    ..\SYSTEM\usart\usart.c                  0x00000000   Number         0  usart.o ABSOLUTE
    ..\USMART\usmart.c                       0x00000000   Number         0  usmart.o ABSOLUTE
    ..\USMART\usmart_config.c                0x00000000   Number         0  usmart_config.o ABSOLUTE
    ..\USMART\usmart_str.c                   0x00000000   Number         0  usmart_str.o ABSOLUTE
    ..\\CORE\\core_cm3.c                     0x00000000   Number         0  core_cm3.o ABSOLUTE
    ..\\SYSTEM\\sys\\sys.c                   0x00000000   Number         0  sys.o ABSOLUTE
    dc.s                                     0x00000000   Number         0  dc.o ABSOLUTE
    main.c                                   0x00000000   Number         0  main.o ABSOLUTE
    stm32f10x_it.c                           0x00000000   Number         0  stm32f10x_it.o ABSOLUTE
    system_stm32f10x.c                       0x00000000   Number         0  system_stm32f10x.o ABSOLUTE
    RESET                                    0x08000000   Section      304  startup_stm32f10x_hd.o(RESET)
    !!!main                                  0x08000130   Section        8  __main.o(!!!main)
    !!!scatter                               0x08000138   Section       52  __scatter.o(!!!scatter)
    !!dczerorl2                              0x0800016c   Section       90  __dczerorl2.o(!!dczerorl2)
    !!handler_zi                             0x080001c8   Section       28  __scatter_zi.o(!!handler_zi)
    .ARM.Collect$$_printf_percent$$00000000  0x080001e4   Section        0  _printf_percent.o(.ARM.Collect$$_printf_percent$$00000000)
    .ARM.Collect$$_printf_percent$$00000001  0x080001e4   Section        6  _printf_n.o(.ARM.Collect$$_printf_percent$$00000001)
    .ARM.Collect$$_printf_percent$$00000002  0x080001ea   Section        6  _printf_p.o(.ARM.Collect$$_printf_percent$$00000002)
    .ARM.Collect$$_printf_percent$$00000003  0x080001f0   Section        6  _printf_f.o(.ARM.Collect$$_printf_percent$$00000003)
    .ARM.Collect$$_printf_percent$$00000004  0x080001f6   Section        6  _printf_e.o(.ARM.Collect$$_printf_percent$$00000004)
    .ARM.Collect$$_printf_percent$$00000005  0x080001fc   Section        6  _printf_g.o(.ARM.Collect$$_printf_percent$$00000005)
    .ARM.Collect$$_printf_percent$$00000006  0x08000202   Section        6  _printf_a.o(.ARM.Collect$$_printf_percent$$00000006)
    .ARM.Collect$$_printf_percent$$00000007  0x08000208   Section       10  _printf_ll.o(.ARM.Collect$$_printf_percent$$00000007)
    .ARM.Collect$$_printf_percent$$00000008  0x08000212   Section        6  _printf_i.o(.ARM.Collect$$_printf_percent$$00000008)
    .ARM.Collect$$_printf_percent$$00000009  0x08000218   Section        6  _printf_d.o(.ARM.Collect$$_printf_percent$$00000009)
    .ARM.Collect$$_printf_percent$$0000000A  0x0800021e   Section        6  _printf_u.o(.ARM.Collect$$_printf_percent$$0000000A)
    .ARM.Collect$$_printf_percent$$0000000B  0x08000224   Section        6  _printf_o.o(.ARM.Collect$$_printf_percent$$0000000B)
    .ARM.Collect$$_printf_percent$$0000000C  0x0800022a   Section        6  _printf_x.o(.ARM.Collect$$_printf_percent$$0000000C)
    .ARM.Collect$$_printf_percent$$0000000D  0x08000230   Section        6  _printf_lli.o(.ARM.Collect$$_printf_percent$$0000000D)
    .ARM.Collect$$_printf_percent$$0000000E  0x08000236   Section        6  _printf_lld.o(.ARM.Collect$$_printf_percent$$0000000E)
    .ARM.Collect$$_printf_percent$$0000000F  0x0800023c   Section        6  _printf_llu.o(.ARM.Collect$$_printf_percent$$0000000F)
    .ARM.Collect$$_printf_percent$$00000010  0x08000242   Section        6  _printf_llo.o(.ARM.Collect$$_printf_percent$$00000010)
    .ARM.Collect$$_printf_percent$$00000011  0x08000248   Section        6  _printf_llx.o(.ARM.Collect$$_printf_percent$$00000011)
    .ARM.Collect$$_printf_percent$$00000012  0x0800024e   Section       10  _printf_l.o(.ARM.Collect$$_printf_percent$$00000012)
    .ARM.Collect$$_printf_percent$$00000013  0x08000258   Section        6  _printf_c.o(.ARM.Collect$$_printf_percent$$00000013)
    .ARM.Collect$$_printf_percent$$00000014  0x0800025e   Section        6  _printf_s.o(.ARM.Collect$$_printf_percent$$00000014)
    .ARM.Collect$$_printf_percent$$00000015  0x08000264   Section        6  _printf_lc.o(.ARM.Collect$$_printf_percent$$00000015)
    .ARM.Collect$$_printf_percent$$00000016  0x0800026a   Section        6  _printf_ls.o(.ARM.Collect$$_printf_percent$$00000016)
    .ARM.Collect$$_printf_percent$$00000017  0x08000270   Section        4  _printf_percent_end.o(.ARM.Collect$$_printf_percent$$00000017)
    .ARM.Collect$$libinit$$00000000          0x08000274   Section        2  libinit.o(.ARM.Collect$$libinit$$00000000)
    .ARM.Collect$$libinit$$00000002          0x08000276   Section        0  libinit2.o(.ARM.Collect$$libinit$$00000002)
    .ARM.Collect$$libinit$$00000004          0x08000276   Section        0  libinit2.o(.ARM.Collect$$libinit$$00000004)
    .ARM.Collect$$libinit$$0000000A          0x08000276   Section        0  libinit2.o(.ARM.Collect$$libinit$$0000000A)
    .ARM.Collect$$libinit$$0000000C          0x08000276   Section        0  libinit2.o(.ARM.Collect$$libinit$$0000000C)
    .ARM.Collect$$libinit$$0000000E          0x08000276   Section        0  libinit2.o(.ARM.Collect$$libinit$$0000000E)
    .ARM.Collect$$libinit$$0000000F          0x08000276   Section        6  libinit2.o(.ARM.Collect$$libinit$$0000000F)
    .ARM.Collect$$libinit$$00000011          0x0800027c   Section        0  libinit2.o(.ARM.Collect$$libinit$$00000011)
    .ARM.Collect$$libinit$$00000012          0x0800027c   Section       12  libinit2.o(.ARM.Collect$$libinit$$00000012)
    .ARM.Collect$$libinit$$00000013          0x08000288   Section        0  libinit2.o(.ARM.Collect$$libinit$$00000013)
    .ARM.Collect$$libinit$$00000015          0x08000288   Section        0  libinit2.o(.ARM.Collect$$libinit$$00000015)
    .ARM.Collect$$libinit$$00000016          0x08000288   Section       10  libinit2.o(.ARM.Collect$$libinit$$00000016)
    .ARM.Collect$$libinit$$00000017          0x08000292   Section        0  libinit2.o(.ARM.Collect$$libinit$$00000017)
    .ARM.Collect$$libinit$$00000019          0x08000292   Section        0  libinit2.o(.ARM.Collect$$libinit$$00000019)
    .ARM.Collect$$libinit$$0000001B          0x08000292   Section        0  libinit2.o(.ARM.Collect$$libinit$$0000001B)
    .ARM.Collect$$libinit$$0000001D          0x08000292   Section        0  libinit2.o(.ARM.Collect$$libinit$$0000001D)
    .ARM.Collect$$libinit$$0000001F          0x08000292   Section        0  libinit2.o(.ARM.Collect$$libinit$$0000001F)
    .ARM.Collect$$libinit$$00000021          0x08000292   Section        0  libinit2.o(.ARM.Collect$$libinit$$00000021)
    .ARM.Collect$$libinit$$00000023          0x08000292   Section        0  libinit2.o(.ARM.Collect$$libinit$$00000023)
    .ARM.Collect$$libinit$$00000025          0x08000292   Section        0  libinit2.o(.ARM.Collect$$libinit$$00000025)
    .ARM.Collect$$libinit$$0000002C          0x08000292   Section        0  libinit2.o(.ARM.Collect$$libinit$$0000002C)
    .ARM.Collect$$libinit$$0000002E          0x08000292   Section        0  libinit2.o(.ARM.Collect$$libinit$$0000002E)
    .ARM.Collect$$libinit$$00000030          0x08000292   Section        0  libinit2.o(.ARM.Collect$$libinit$$00000030)
    .ARM.Collect$$libinit$$00000032          0x08000292   Section        0  libinit2.o(.ARM.Collect$$libinit$$00000032)
    .ARM.Collect$$libinit$$00000033          0x08000292   Section        2  libinit2.o(.ARM.Collect$$libinit$$00000033)
    .ARM.Collect$$libshutdown$$00000000      0x08000294   Section        2  libshutdown.o(.ARM.Collect$$libshutdown$$00000000)
    .ARM.Collect$$libshutdown$$00000003      0x08000296   Section        0  libshutdown2.o(.ARM.Collect$$libshutdown$$00000003)
    .ARM.Collect$$libshutdown$$00000006      0x08000296   Section        0  libshutdown2.o(.ARM.Collect$$libshutdown$$00000006)
    .ARM.Collect$$libshutdown$$00000009      0x08000296   Section        0  libshutdown2.o(.ARM.Collect$$libshutdown$$00000009)
    .ARM.Collect$$libshutdown$$0000000B      0x08000296   Section        0  libshutdown2.o(.ARM.Collect$$libshutdown$$0000000B)
    .ARM.Collect$$libshutdown$$0000000E      0x08000296   Section        0  libshutdown2.o(.ARM.Collect$$libshutdown$$0000000E)
    .ARM.Collect$$libshutdown$$0000000F      0x08000296   Section        2  libshutdown2.o(.ARM.Collect$$libshutdown$$0000000F)
    .ARM.Collect$$rtentry$$00000000          0x08000298   Section        0  __rtentry.o(.ARM.Collect$$rtentry$$00000000)
    .ARM.Collect$$rtentry$$00000002          0x08000298   Section        0  __rtentry2.o(.ARM.Collect$$rtentry$$00000002)
    .ARM.Collect$$rtentry$$00000004          0x08000298   Section        6  __rtentry4.o(.ARM.Collect$$rtentry$$00000004)
    .ARM.Collect$$rtentry$$00000009          0x0800029e   Section        0  __rtentry2.o(.ARM.Collect$$rtentry$$00000009)
    .ARM.Collect$$rtentry$$0000000A          0x0800029e   Section        4  __rtentry2.o(.ARM.Collect$$rtentry$$0000000A)
    .ARM.Collect$$rtentry$$0000000C          0x080002a2   Section        0  __rtentry2.o(.ARM.Collect$$rtentry$$0000000C)
    .ARM.Collect$$rtentry$$0000000D          0x080002a2   Section        8  __rtentry2.o(.ARM.Collect$$rtentry$$0000000D)
    .ARM.Collect$$rtexit$$00000000           0x080002aa   Section        2  rtexit.o(.ARM.Collect$$rtexit$$00000000)
    .ARM.Collect$$rtexit$$00000002           0x080002ac   Section        0  rtexit2.o(.ARM.Collect$$rtexit$$00000002)
    .ARM.Collect$$rtexit$$00000003           0x080002ac   Section        4  rtexit2.o(.ARM.Collect$$rtexit$$00000003)
    .ARM.Collect$$rtexit$$00000004           0x080002b0   Section        6  rtexit2.o(.ARM.Collect$$rtexit$$00000004)
    .text                                    0x080002b8   Section       64  startup_stm32f10x_hd.o(.text)
    .text                                    0x080002f8   Section        2  use_no_semi_2.o(.text)
    .text                                    0x080002fc   Section        0  c89printf.o(.text)
    .text                                    0x08000314   Section        0  __2printf.o(.text)
    .text                                    0x0800032c   Section        0  __2sprintf.o(.text)
    .text                                    0x08000358   Section        0  _printf_pad.o(.text)
    .text                                    0x080003a6   Section        0  _printf_str.o(.text)
    .text                                    0x080003f8   Section        0  _printf_dec.o(.text)
    .text                                    0x08000470   Section        0  _printf_hex_int_ll_ptr.o(.text)
    _printf_hex_common                       0x08000471   Thumb Code     0  _printf_hex_int_ll_ptr.o(.text)
    .text                                    0x08000504   Section        0  __printf_flags_ss_wp.o(.text)
    .text                                    0x0800068c   Section        0  strstr.o(.text)
    .text                                    0x080006b0   Section        0  strcat.o(.text)
    .text                                    0x080006c8   Section       68  rt_memclr.o(.text)
    .text                                    0x0800070c   Section       78  rt_memclr_w.o(.text)
    .text                                    0x0800075a   Section        0  heapauxi.o(.text)
    .text                                    0x08000760   Section        2  use_no_semi.o(.text)
    .text                                    0x08000762   Section        0  _printf_truncate.o(.text)
    .text                                    0x08000786   Section        0  _printf_intcommon.o(.text)
    .text                                    0x08000838   Section        0  _printf_charcount.o(.text)
    .text                                    0x08000860   Section        0  _printf_fp_dec.o(.text)
    _fp_digits                               0x08000863   Thumb Code   428  _printf_fp_dec.o(.text)
    .text                                    0x08000c7c   Section        0  _printf_char_common.o(.text)
    _printf_input_char                       0x08000c7d   Thumb Code    10  _printf_char_common.o(.text)
    .text                                    0x08000cac   Section        0  _sputc.o(.text)
    .text                                    0x08000cb6   Section        0  _printf_char.o(.text)
    .text                                    0x08000ce4   Section        0  _printf_char_file.o(.text)
    .text                                    0x08000d08   Section        0  _printf_wctomb.o(.text)
    .text                                    0x08000dc4   Section        0  _printf_longlong_dec.o(.text)
    .text                                    0x08000e40   Section        0  _printf_oct_int_ll.o(.text)
    _printf_longlong_oct_internal            0x08000e41   Thumb Code     0  _printf_oct_int_ll.o(.text)
    .text                                    0x08000eb0   Section        8  rt_locale_intlibspace.o(.text)
    .text                                    0x08000eb8   Section      138  lludiv10.o(.text)
    .text                                    0x08000f44   Section        0  _printf_fp_infnan.o(.text)
    .text                                    0x08000fc4   Section        0  _printf_wchar.o(.text)
    .text                                    0x08000ff0   Section        0  bigflt0.o(.text)
    .text                                    0x080010cc   Section        0  ferror.o(.text)
    .text                                    0x080010d4   Section        0  _wcrtomb.o(.text)
    .text                                    0x08001114   Section        8  libspace.o(.text)
    .text                                    0x0800111c   Section       74  sys_stackheap_outer.o(.text)
    .text                                    0x08001168   Section       16  rt_ctype_table.o(.text)
    .text                                    0x08001178   Section        0  exit.o(.text)
    .text                                    0x08001184   Section      128  strcmpv7m.o(.text)
    CL$$btod_d2e                             0x08001204   Section       62  btod.o(CL$$btod_d2e)
    CL$$btod_d2e_denorm_low                  0x08001242   Section       70  btod.o(CL$$btod_d2e_denorm_low)
    CL$$btod_d2e_norm_op1                    0x08001288   Section       96  btod.o(CL$$btod_d2e_norm_op1)
    CL$$btod_div_common                      0x080012e8   Section      824  btod.o(CL$$btod_div_common)
    CL$$btod_e2e                             0x08001620   Section      198  btod.o(CL$$btod_e2e)
    CL$$btod_ediv                            0x080016e6   Section       40  btod.o(CL$$btod_ediv)
    CL$$btod_emul                            0x0800170e   Section       40  btod.o(CL$$btod_emul)
    CL$$btod_mult_common                     0x08001736   Section      580  btod.o(CL$$btod_mult_common)
    i.BC28_ALYIOTSenddataAdc                 0x0800197c   Section        0  bc28.o(i.BC28_ALYIOTSenddataAdc)
    i.BC28_Init                              0x08001a98   Section        0  bc28.o(i.BC28_Init)
    i.BC28_RegALIYUNIOT                      0x08001d9c   Section        0  bc28.o(i.BC28_RegALIYUNIOT)
    i.BusFault_Handler                       0x08001f58   Section        0  stm32f10x_it.o(i.BusFault_Handler)
    i.CTR_Init                               0x08001f5c   Section        0  led.o(i.CTR_Init)
    i.Clear_Buffer                           0x08001f88   Section        0  bc28.o(i.Clear_Buffer)
    i.DebugMon_Handler                       0x08001fb4   Section        0  stm32f10x_it.o(i.DebugMon_Handler)
    i.FSMC_NORSRAMCmd                        0x08001fb8   Section        0  stm32f10x_fsmc.o(i.FSMC_NORSRAMCmd)
    i.FSMC_NORSRAMInit                       0x08001fd8   Section        0  stm32f10x_fsmc.o(i.FSMC_NORSRAMInit)
    i.GPIO_Init                              0x080020a0   Section        0  stm32f10x_gpio.o(i.GPIO_Init)
    i.GPIO_ResetBits                         0x0800213c   Section        0  stm32f10x_gpio.o(i.GPIO_ResetBits)
    i.GPIO_SetBits                           0x08002140   Section        0  stm32f10x_gpio.o(i.GPIO_SetBits)
    i.GPS_Analysis                           0x08002144   Section        0  gps.o(i.GPS_Analysis)
    i.Gps_Msg_Show                           0x0800217c   Section        0  main.o(i.Gps_Msg_Show)
    i.HardFault_Handler                      0x0800243c   Section        0  stm32f10x_it.o(i.HardFault_Handler)
    i.KEY_Init                               0x08002440   Section        0  key.o(i.KEY_Init)
    i.LCD_Clear                              0x0800247c   Section        0  lcd.o(i.LCD_Clear)
    i.LCD_Display_Dir                        0x080024e8   Section        0  lcd.o(i.LCD_Display_Dir)
    i.LCD_Fast_DrawPoint                     0x0800261c   Section        0  lcd.o(i.LCD_Fast_DrawPoint)
    i.LCD_Fill                               0x08002738   Section        0  lcd.o(i.LCD_Fill)
    i.LCD_Init                               0x080027c4   Section        0  lcd.o(i.LCD_Init)
    i.LCD_RD_DATA                            0x080055dc   Section        0  lcd.o(i.LCD_RD_DATA)
    i.LCD_ReadReg                            0x080055f0   Section        0  lcd.o(i.LCD_ReadReg)
    i.LCD_SSD_BackLightSet                   0x08005608   Section        0  lcd.o(i.LCD_SSD_BackLightSet)
    i.LCD_Scan_Dir                           0x08005644   Section        0  lcd.o(i.LCD_Scan_Dir)
    i.LCD_SetCursor                          0x080057ec   Section        0  lcd.o(i.LCD_SetCursor)
    i.LCD_ShowChar                           0x08005934   Section        0  lcd.o(i.LCD_ShowChar)
    i.LCD_ShowString                         0x08005a00   Section        0  lcd.o(i.LCD_ShowString)
    i.LCD_WriteRAM_Prepare                   0x08005a54   Section        0  lcd.o(i.LCD_WriteRAM_Prepare)
    i.LCD_WriteReg                           0x08005a68   Section        0  lcd.o(i.LCD_WriteReg)
    i.LED_Init                               0x08005a78   Section        0  led.o(i.LED_Init)
    i.MemManage_Handler                      0x08005ac8   Section        0  stm32f10x_it.o(i.MemManage_Handler)
    i.NMEA_BDGSV_Analysis                    0x08005acc   Section        0  gps.o(i.NMEA_BDGSV_Analysis)
    i.NMEA_Comma_Pos                         0x08005bbc   Section        0  gps.o(i.NMEA_Comma_Pos)
    i.NMEA_GNGGA_Analysis                    0x08005be8   Section        0  gps.o(i.NMEA_GNGGA_Analysis)
    i.NMEA_GNGSA_Analysis                    0x08005c48   Section        0  gps.o(i.NMEA_GNGSA_Analysis)
    i.NMEA_GNRMC_Analysis                    0x08005ce8   Section        0  gps.o(i.NMEA_GNRMC_Analysis)
    i.NMEA_GNVTG_Analysis                    0x08005ed4   Section        0  gps.o(i.NMEA_GNVTG_Analysis)
    i.NMEA_GPGSV_Analysis                    0x08005f20   Section        0  gps.o(i.NMEA_GPGSV_Analysis)
    i.NMEA_Pow                               0x08006008   Section        0  gps.o(i.NMEA_Pow)
    i.NMEA_Str2num                           0x08006018   Section        0  gps.o(i.NMEA_Str2num)
    i.NMI_Handler                            0x080060d8   Section        0  stm32f10x_it.o(i.NMI_Handler)
    i.NVIC_Init                              0x080060dc   Section        0  misc.o(i.NVIC_Init)
    i.NVIC_PriorityGroupConfig               0x08006140   Section        0  misc.o(i.NVIC_PriorityGroupConfig)
    i.PendSV_Handler                         0x08006154   Section        0  stm32f10x_it.o(i.PendSV_Handler)
    i.RCC_AHBPeriphClockCmd                  0x08006158   Section        0  stm32f10x_rcc.o(i.RCC_AHBPeriphClockCmd)
    i.RCC_APB1PeriphClockCmd                 0x08006170   Section        0  stm32f10x_rcc.o(i.RCC_APB1PeriphClockCmd)
    i.RCC_APB1PeriphResetCmd                 0x08006188   Section        0  stm32f10x_rcc.o(i.RCC_APB1PeriphResetCmd)
    i.RCC_APB2PeriphClockCmd                 0x080061a0   Section        0  stm32f10x_rcc.o(i.RCC_APB2PeriphClockCmd)
    i.RCC_APB2PeriphResetCmd                 0x080061b8   Section        0  stm32f10x_rcc.o(i.RCC_APB2PeriphResetCmd)
    i.RCC_GetClocksFreq                      0x080061d0   Section        0  stm32f10x_rcc.o(i.RCC_GetClocksFreq)
    i.SVC_Handler                            0x08006264   Section        0  stm32f10x_it.o(i.SVC_Handler)
    i.SetSysClockTo72                        0x08006268   Section        0  system_stm32f10x.o(i.SetSysClockTo72)
    SetSysClockTo72                          0x08006269   Thumb Code   160  system_stm32f10x.o(i.SetSysClockTo72)
    i.SkyTra_Cfg_Ack_Check                   0x08006310   Section        0  gps.o(i.SkyTra_Cfg_Ack_Check)
    i.SkyTra_Cfg_Prt                         0x08006370   Section        0  gps.o(i.SkyTra_Cfg_Prt)
    i.SkyTra_Cfg_Rate                        0x080063c8   Section        0  gps.o(i.SkyTra_Cfg_Rate)
    i.SkyTra_Cfg_Tp                          0x08006404   Section        0  gps.o(i.SkyTra_Cfg_Tp)
    i.SkyTra_Send_Date                       0x08006454   Section        0  gps.o(i.SkyTra_Send_Date)
    i.SysTick_CLKSourceConfig                0x08006478   Section        0  misc.o(i.SysTick_CLKSourceConfig)
    i.SysTick_Handler                        0x08006490   Section        0  stm32f10x_it.o(i.SysTick_Handler)
    i.SystemInit                             0x08006494   Section        0  system_stm32f10x.o(i.SystemInit)
    i.TIM4_IRQHandler                        0x080064e4   Section        0  usmart.o(i.TIM4_IRQHandler)
    i.TIM7_IRQHandler                        0x08006520   Section        0  timer.o(i.TIM7_IRQHandler)
    i.TIM7_Int_Init                          0x08006558   Section        0  timer.o(i.TIM7_Int_Init)
    i.TIM_ClearFlag                          0x080065b8   Section        0  stm32f10x_tim.o(i.TIM_ClearFlag)
    i.TIM_ClearITPendingBit                  0x080065be   Section        0  stm32f10x_tim.o(i.TIM_ClearITPendingBit)
    i.TIM_Cmd                                0x080065c4   Section        0  stm32f10x_tim.o(i.TIM_Cmd)
    i.TIM_GetCounter                         0x080065d8   Section        0  stm32f10x_tim.o(i.TIM_GetCounter)
    i.TIM_GetFlagStatus                      0x080065dc   Section        0  stm32f10x_tim.o(i.TIM_GetFlagStatus)
    i.TIM_GetITStatus                        0x080065ea   Section        0  stm32f10x_tim.o(i.TIM_GetITStatus)
    i.TIM_ITConfig                           0x08006602   Section        0  stm32f10x_tim.o(i.TIM_ITConfig)
    i.TIM_SetAutoreload                      0x08006612   Section        0  stm32f10x_tim.o(i.TIM_SetAutoreload)
    i.TIM_SetCounter                         0x08006616   Section        0  stm32f10x_tim.o(i.TIM_SetCounter)
    i.TIM_TimeBaseInit                       0x0800661c   Section        0  stm32f10x_tim.o(i.TIM_TimeBaseInit)
    i.Timer4_Init                            0x080066b8   Section        0  usmart.o(i.Timer4_Init)
    i.UART2_send_byte                        0x08006718   Section        0  usart2.o(i.UART2_send_byte)
    i.USART1_IRQHandler                      0x0800673c   Section        0  usart.o(i.USART1_IRQHandler)
    i.USART2_IRQHandler                      0x080067a0   Section        0  usart2.o(i.USART2_IRQHandler)
    i.USART3_IRQHandler                      0x080067c8   Section        0  usart3.o(i.USART3_IRQHandler)
    i.USART_Cmd                              0x08006830   Section        0  stm32f10x_usart.o(i.USART_Cmd)
    i.USART_DeInit                           0x08006844   Section        0  stm32f10x_usart.o(i.USART_DeInit)
    i.USART_GetFlagStatus                    0x080068b8   Section        0  stm32f10x_usart.o(i.USART_GetFlagStatus)
    i.USART_GetITStatus                      0x080068c6   Section        0  stm32f10x_usart.o(i.USART_GetITStatus)
    i.USART_ITConfig                         0x08006904   Section        0  stm32f10x_usart.o(i.USART_ITConfig)
    i.USART_Init                             0x08006934   Section        0  stm32f10x_usart.o(i.USART_Init)
    i.USART_ReceiveData                      0x080069e0   Section        0  stm32f10x_usart.o(i.USART_ReceiveData)
    i.USART_SendData                         0x080069e8   Section        0  stm32f10x_usart.o(i.USART_SendData)
    i.Uart2_SendStr                          0x080069f0   Section        0  usart2.o(i.Uart2_SendStr)
    i.UsageFault_Handler                     0x08006a10   Section        0  stm32f10x_it.o(i.UsageFault_Handler)
    i.__ARM_fpclassify                       0x08006a12   Section        0  fpclassify.o(i.__ARM_fpclassify)
    i._is_digit                              0x08006a3a   Section        0  __printf_wp.o(i._is_digit)
    i._sys_exit                              0x08006a48   Section        0  usart.o(i._sys_exit)
    i.delay_init                             0x08006a4c   Section        0  delay.o(i.delay_init)
    i.delay_ms                               0x08006a88   Section        0  delay.o(i.delay_ms)
    i.delay_us                               0x08006abc   Section        0  delay.o(i.delay_us)
    i.fputc                                  0x08006af0   Section        0  usart.o(i.fputc)
    i.main                                   0x08006b08   Section        0  main.o(i.main)
    i.nbiot_receive_process_event            0x08006e0c   Section        0  usart2.o(i.nbiot_receive_process_event)
    i.read_addr                              0x08006e2c   Section        0  usmart.o(i.read_addr)
    i.uart2_init                             0x08006e30   Section        0  usart2.o(i.uart2_init)
    i.uart_init                              0x08006ed8   Section        0  usart.o(i.uart_init)
    i.usart3_init                            0x08006f78   Section        0  usart3.o(i.usart3_init)
    i.usmart_cmd_rec                         0x08007044   Section        0  usmart.o(i.usmart_cmd_rec)
    i.usmart_exe                             0x080070d8   Section        0  usmart.o(i.usmart_exe)
    i.usmart_get_aparm                       0x08007338   Section        0  usmart_str.o(i.usmart_get_aparm)
    i.usmart_get_cmdname                     0x080073d4   Section        0  usmart_str.o(i.usmart_get_cmdname)
    i.usmart_get_fname                       0x08007404   Section        0  usmart_str.o(i.usmart_get_fname)
    i.usmart_get_fparam                      0x0800756c   Section        0  usmart_str.o(i.usmart_get_fparam)
    i.usmart_get_parmpos                     0x0800763c   Section        0  usmart_str.o(i.usmart_get_parmpos)
    i.usmart_get_runtime                     0x08007660   Section        0  usmart.o(i.usmart_get_runtime)
    i.usmart_init                            0x08007698   Section        0  usmart.o(i.usmart_init)
    i.usmart_pow                             0x080076c0   Section        0  usmart_str.o(i.usmart_pow)
    i.usmart_reset_runtime                   0x080076d0   Section        0  usmart.o(i.usmart_reset_runtime)
    i.usmart_scan                            0x08007700   Section        0  usmart.o(i.usmart_scan)
    i.usmart_search_nextc                    0x080077a4   Section        0  usmart_str.o(i.usmart_search_nextc)
    i.usmart_str2num                         0x080077b4   Section        0  usmart_str.o(i.usmart_str2num)
    i.usmart_strcmp                          0x08007854   Section        0  usmart_str.o(i.usmart_strcmp)
    i.usmart_strcopy                         0x0800786c   Section        0  usmart_str.o(i.usmart_strcopy)
    i.usmart_strlen                          0x0800787e   Section        0  usmart_str.o(i.usmart_strlen)
    i.usmart_sys_cmd_exe                     0x08007890   Section        0  usmart.o(i.usmart_sys_cmd_exe)
    i.write_addr                             0x08007f00   Section        0  usmart.o(i.write_addr)
    locale$$code                             0x08007f04   Section       44  lc_numeric_c.o(locale$$code)
    locale$$code                             0x08007f30   Section       44  lc_ctype_c.o(locale$$code)
    x$fpl$dfixu                              0x08007f5c   Section       90  dfixu.o(x$fpl$dfixu)
    x$fpl$dfltu                              0x08007fb6   Section       38  dflt_clz.o(x$fpl$dfltu)
    x$fpl$dmul                               0x08007fdc   Section      340  dmul.o(x$fpl$dmul)
    x$fpl$dnaninf                            0x08008130   Section      156  dnaninf.o(x$fpl$dnaninf)
    x$fpl$dretinf                            0x080081cc   Section       12  dretinf.o(x$fpl$dretinf)
    x$fpl$f2d                                0x080081d8   Section       86  f2d.o(x$fpl$f2d)
    x$fpl$fadd                               0x08008230   Section      196  faddsub_clz.o(x$fpl$fadd)
    _fadd1                                   0x0800823f   Thumb Code     0  faddsub_clz.o(x$fpl$fadd)
    x$fpl$fdiv                               0x080082f4   Section      388  fdiv.o(x$fpl$fdiv)
    _fdiv1                                   0x080082f5   Thumb Code     0  fdiv.o(x$fpl$fdiv)
    x$fpl$ffixu                              0x08008478   Section       62  ffixu.o(x$fpl$ffixu)
    x$fpl$fflt                               0x080084b8   Section       48  fflt_clz.o(x$fpl$fflt)
    x$fpl$ffltu                              0x080084e8   Section       38  fflt_clz.o(x$fpl$ffltu)
    x$fpl$fmul                               0x08008510   Section      258  fmul.o(x$fpl$fmul)
    x$fpl$fnaninf                            0x08008612   Section      140  fnaninf.o(x$fpl$fnaninf)
    x$fpl$fretinf                            0x0800869e   Section       10  fretinf.o(x$fpl$fretinf)
    x$fpl$fsub                               0x080086a8   Section      234  faddsub_clz.o(x$fpl$fsub)
    _fsub1                                   0x080086b7   Thumb Code     0  faddsub_clz.o(x$fpl$fsub)
    x$fpl$printf1                            0x08008792   Section        4  printf1.o(x$fpl$printf1)
    x$fpl$usenofp                            0x08008796   Section        0  usenofp.o(x$fpl$usenofp)
    .constdata                               0x08008798   Section       36  gps.o(.constdata)
    .constdata                               0x080087bc   Section     6080  lcd.o(.constdata)
    .constdata                               0x08009f7c   Section       40  _printf_hex_int_ll_ptr.o(.constdata)
    uc_hextab                                0x08009f7c   Data          20  _printf_hex_int_ll_ptr.o(.constdata)
    lc_hextab                                0x08009f90   Data          20  _printf_hex_int_ll_ptr.o(.constdata)
    .constdata                               0x08009fa4   Section       17  __printf_flags_ss_wp.o(.constdata)
    maptable                                 0x08009fa4   Data          17  __printf_flags_ss_wp.o(.constdata)
    .constdata                               0x08009fb8   Section        8  _printf_wctomb.o(.constdata)
    initial_mbstate                          0x08009fb8   Data           8  _printf_wctomb.o(.constdata)
    .constdata                               0x08009fc0   Section      148  bigflt0.o(.constdata)
    tenpwrs_x                                0x08009fc0   Data          60  bigflt0.o(.constdata)
    tenpwrs_i                                0x08009ffc   Data          64  bigflt0.o(.constdata)
    .conststring                             0x0800a054   Section       21  main.o(.conststring)
    .conststring                             0x0800a06c   Section       40  usmart.o(.conststring)
    .conststring                             0x0800a094   Section      148  usmart_config.o(.conststring)
    locale$$data                             0x0800a148   Section       28  lc_numeric_c.o(locale$$data)
    __lcnum_c_name                           0x0800a14c   Data           2  lc_numeric_c.o(locale$$data)
    __lcnum_c_start                          0x0800a154   Data           0  lc_numeric_c.o(locale$$data)
    __lcnum_c_point                          0x0800a160   Data           0  lc_numeric_c.o(locale$$data)
    __lcnum_c_thousands                      0x0800a162   Data           0  lc_numeric_c.o(locale$$data)
    __lcnum_c_grouping                       0x0800a163   Data           0  lc_numeric_c.o(locale$$data)
    locale$$data                             0x0800a164   Section      272  lc_ctype_c.o(locale$$data)
    __lcnum_c_end                            0x0800a164   Data           0  lc_numeric_c.o(locale$$data)
    __lcctype_c_name                         0x0800a168   Data           2  lc_ctype_c.o(locale$$data)
    __lcctype_c_start                        0x0800a170   Data           0  lc_ctype_c.o(locale$$data)
    __lcctype_c_end                          0x0800a274   Data           0  lc_ctype_c.o(locale$$data)
    .data                                    0x20000000   Section       16  main.o(.data)
    .data                                    0x20000010   Section       20  system_stm32f10x.o(.data)
    .data                                    0x20000024   Section        4  lcd.o(.data)
    .data                                    0x20000028   Section        2  usart3.o(.data)
    .data                                    0x2000002c   Section       12  bc28.o(.data)
    .data                                    0x20000038   Section        4  delay.o(.data)
    fac_us                                   0x20000038   Data           1  delay.o(.data)
    fac_ms                                   0x2000003a   Data           2  delay.o(.data)
    .data                                    0x2000003c   Section        2  usart.o(.data)
    .data                                    0x20000040   Section        4  usart.o(.data)
    .data                                    0x20000044   Section       20  stm32f10x_rcc.o(.data)
    ADCPrescTable                            0x20000044   Data           4  stm32f10x_rcc.o(.data)
    APBAHBPrescTable                         0x20000048   Data          16  stm32f10x_rcc.o(.data)
    .data                                    0x20000058   Section       28  usmart.o(.data)
    .data                                    0x20000074   Section       40  usmart_config.o(.data)
    .data                                    0x2000009c   Section      244  usmart_config.o(.data)
    .bss                                     0x20000190   Section      818  main.o(.bss)
    .bss                                     0x200004c2   Section       14  lcd.o(.bss)
    .bss                                     0x200004d0   Section     1200  usart3.o(.bss)
    .bss                                     0x20000980   Section      256  bc28.o(.bss)
    .bss                                     0x20000a80   Section      264  usart2.o(.bss)
    .bss                                     0x20000b88   Section      200  usart.o(.bss)
    .bss                                     0x20000c50   Section       96  libspace.o(.bss)
    HEAP                                     0x20000cb0   Section      512  startup_stm32f10x_hd.o(HEAP)
    Heap_Mem                                 0x20000cb0   Data         512  startup_stm32f10x_hd.o(HEAP)
    STACK                                    0x20000eb0   Section     1024  startup_stm32f10x_hd.o(STACK)
    Stack_Mem                                0x20000eb0   Data        1024  startup_stm32f10x_hd.o(STACK)
    __initial_sp                             0x200012b0   Data           0  startup_stm32f10x_hd.o(STACK)

    Global Symbols

    Symbol Name                              Value     Ov Type        Size  Object(Section)

    BuildAttributes$$THM_ISAv4$P$D$K$B$S$PE$A:L22UL41UL21$X:L11$S22US41US21$IEEE1$IW$USESV6$~STKCKD$USESV7$~SHL$OTIME$ROPI$IEEEJ$EBA8$UX$STANDARDLIB$REQ8$PRES8$EABIv2 0x00000000   Number         0  anon$$obj.o ABSOLUTE
    __ARM_use_no_argv                        0x00000000   Number         0  main.o ABSOLUTE
    _printf_flags                            0x00000000   Number         0  printf_stubs.o ABSOLUTE
    _printf_return_value                     0x00000000   Number         0  printf_stubs.o ABSOLUTE
    _printf_sizespec                         0x00000000   Number         0  printf_stubs.o ABSOLUTE
    _printf_widthprec                        0x00000000   Number         0  printf_stubs.o ABSOLUTE
    __ARM_exceptions_init                     - Undefined Weak Reference
    __alloca_initialize                       - Undefined Weak Reference
    __arm_preinit_                            - Undefined Weak Reference
    __cpp_initialize__aeabi_                  - Undefined Weak Reference
    __cxa_finalize                            - Undefined Weak Reference
    __sigvec_lookup                           - Undefined Weak Reference
    _atexit_init                              - Undefined Weak Reference
    _call_atexit_fns                          - Undefined Weak Reference
    _clock_init                               - Undefined Weak Reference
    _fp_trap_init                             - Undefined Weak Reference
    _fp_trap_shutdown                         - Undefined Weak Reference
    _get_lc_collate                           - Undefined Weak Reference
    _get_lc_monetary                          - Undefined Weak Reference
    _get_lc_time                              - Undefined Weak Reference
    _getenv_init                              - Undefined Weak Reference
    _handle_redirection                       - Undefined Weak Reference
    _init_alloc                               - Undefined Weak Reference
    _init_user_alloc                          - Undefined Weak Reference
    _initio                                   - Undefined Weak Reference
    _mutex_acquire                            - Undefined Weak Reference
    _mutex_release                            - Undefined Weak Reference
    _printf_fp_hex                            - Undefined Weak Reference
    _printf_mbtowc                            - Undefined Weak Reference
    _printf_wc                                - Undefined Weak Reference
    _rand_init                                - Undefined Weak Reference
    _signal_finish                            - Undefined Weak Reference
    _signal_init                              - Undefined Weak Reference
    _terminate_alloc                          - Undefined Weak Reference
    _terminate_user_alloc                     - Undefined Weak Reference
    _terminateio                              - Undefined Weak Reference
    __Vectors_Size                           0x00000130   Number         0  startup_stm32f10x_hd.o ABSOLUTE
    __Vectors                                0x08000000   Data           4  startup_stm32f10x_hd.o(RESET)
    __Vectors_End                            0x08000130   Data           0  startup_stm32f10x_hd.o(RESET)
    __main                                   0x08000131   Thumb Code     8  __main.o(!!!main)
    __scatterload                            0x08000139   Thumb Code     0  __scatter.o(!!!scatter)
    __scatterload_rt2                        0x08000139   Thumb Code    44  __scatter.o(!!!scatter)
    __scatterload_rt2_thumb_only             0x08000139   Thumb Code     0  __scatter.o(!!!scatter)
    __scatterload_null                       0x08000147   Thumb Code     0  __scatter.o(!!!scatter)
    __decompress                             0x0800016d   Thumb Code    90  __dczerorl2.o(!!dczerorl2)
    __decompress1                            0x0800016d   Thumb Code     0  __dczerorl2.o(!!dczerorl2)
    __scatterload_zeroinit                   0x080001c9   Thumb Code    28  __scatter_zi.o(!!handler_zi)
    _printf_n                                0x080001e5   Thumb Code     0  _printf_n.o(.ARM.Collect$$_printf_percent$$00000001)
    _printf_percent                          0x080001e5   Thumb Code     0  _printf_percent.o(.ARM.Collect$$_printf_percent$$00000000)
    _printf_p                                0x080001eb   Thumb Code     0  _printf_p.o(.ARM.Collect$$_printf_percent$$00000002)
    _printf_f                                0x080001f1   Thumb Code     0  _printf_f.o(.ARM.Collect$$_printf_percent$$00000003)
    _printf_e                                0x080001f7   Thumb Code     0  _printf_e.o(.ARM.Collect$$_printf_percent$$00000004)
    _printf_g                                0x080001fd   Thumb Code     0  _printf_g.o(.ARM.Collect$$_printf_percent$$00000005)
    _printf_a                                0x08000203   Thumb Code     0  _printf_a.o(.ARM.Collect$$_printf_percent$$00000006)
    _printf_ll                               0x08000209   Thumb Code     0  _printf_ll.o(.ARM.Collect$$_printf_percent$$00000007)
    _printf_i                                0x08000213   Thumb Code     0  _printf_i.o(.ARM.Collect$$_printf_percent$$00000008)
    _printf_d                                0x08000219   Thumb Code     0  _printf_d.o(.ARM.Collect$$_printf_percent$$00000009)
    _printf_u                                0x0800021f   Thumb Code     0  _printf_u.o(.ARM.Collect$$_printf_percent$$0000000A)
    _printf_o                                0x08000225   Thumb Code     0  _printf_o.o(.ARM.Collect$$_printf_percent$$0000000B)
    _printf_x                                0x0800022b   Thumb Code     0  _printf_x.o(.ARM.Collect$$_printf_percent$$0000000C)
    _printf_lli                              0x08000231   Thumb Code     0  _printf_lli.o(.ARM.Collect$$_printf_percent$$0000000D)
    _printf_lld                              0x08000237   Thumb Code     0  _printf_lld.o(.ARM.Collect$$_printf_percent$$0000000E)
    _printf_llu                              0x0800023d   Thumb Code     0  _printf_llu.o(.ARM.Collect$$_printf_percent$$0000000F)
    _printf_llo                              0x08000243   Thumb Code     0  _printf_llo.o(.ARM.Collect$$_printf_percent$$00000010)
    _printf_llx                              0x08000249   Thumb Code     0  _printf_llx.o(.ARM.Collect$$_printf_percent$$00000011)
    _printf_l                                0x0800024f   Thumb Code     0  _printf_l.o(.ARM.Collect$$_printf_percent$$00000012)
    _printf_c                                0x08000259   Thumb Code     0  _printf_c.o(.ARM.Collect$$_printf_percent$$00000013)
    _printf_s                                0x0800025f   Thumb Code     0  _printf_s.o(.ARM.Collect$$_printf_percent$$00000014)
    _printf_lc                               0x08000265   Thumb Code     0  _printf_lc.o(.ARM.Collect$$_printf_percent$$00000015)
    _printf_ls                               0x0800026b   Thumb Code     0  _printf_ls.o(.ARM.Collect$$_printf_percent$$00000016)
    _printf_percent_end                      0x08000271   Thumb Code     0  _printf_percent_end.o(.ARM.Collect$$_printf_percent$$00000017)
    __rt_lib_init                            0x08000275   Thumb Code     0  libinit.o(.ARM.Collect$$libinit$$00000000)
    __rt_lib_init_fp_1                       0x08000277   Thumb Code     0  libinit2.o(.ARM.Collect$$libinit$$00000002)
    __rt_lib_init_heap_1                     0x08000277   Thumb Code     0  libinit2.o(.ARM.Collect$$libinit$$0000000A)
    __rt_lib_init_lc_common                  0x08000277   Thumb Code     0  libinit2.o(.ARM.Collect$$libinit$$0000000F)
    __rt_lib_init_preinit_1                  0x08000277   Thumb Code     0  libinit2.o(.ARM.Collect$$libinit$$00000004)
    __rt_lib_init_rand_1                     0x08000277   Thumb Code     0  libinit2.o(.ARM.Collect$$libinit$$0000000E)
    __rt_lib_init_user_alloc_1               0x08000277   Thumb Code     0  libinit2.o(.ARM.Collect$$libinit$$0000000C)
    __rt_lib_init_lc_collate_1               0x0800027d   Thumb Code     0  libinit2.o(.ARM.Collect$$libinit$$00000011)
    __rt_lib_init_lc_ctype_2                 0x0800027d   Thumb Code     0  libinit2.o(.ARM.Collect$$libinit$$00000012)
    __rt_lib_init_lc_ctype_1                 0x08000289   Thumb Code     0  libinit2.o(.ARM.Collect$$libinit$$00000013)
    __rt_lib_init_lc_monetary_1              0x08000289   Thumb Code     0  libinit2.o(.ARM.Collect$$libinit$$00000015)
    __rt_lib_init_lc_numeric_2               0x08000289   Thumb Code     0  libinit2.o(.ARM.Collect$$libinit$$00000016)
    __rt_lib_init_alloca_1                   0x08000293   Thumb Code     0  libinit2.o(.ARM.Collect$$libinit$$0000002E)
    __rt_lib_init_argv_1                     0x08000293   Thumb Code     0  libinit2.o(.ARM.Collect$$libinit$$0000002C)
    __rt_lib_init_atexit_1                   0x08000293   Thumb Code     0  libinit2.o(.ARM.Collect$$libinit$$0000001B)
    __rt_lib_init_clock_1                    0x08000293   Thumb Code     0  libinit2.o(.ARM.Collect$$libinit$$00000021)
    __rt_lib_init_cpp_1                      0x08000293   Thumb Code     0  libinit2.o(.ARM.Collect$$libinit$$00000032)
    __rt_lib_init_exceptions_1               0x08000293   Thumb Code     0  libinit2.o(.ARM.Collect$$libinit$$00000030)
    __rt_lib_init_fp_trap_1                  0x08000293   Thumb Code     0  libinit2.o(.ARM.Collect$$libinit$$0000001F)
    __rt_lib_init_getenv_1                   0x08000293   Thumb Code     0  libinit2.o(.ARM.Collect$$libinit$$00000023)
    __rt_lib_init_lc_numeric_1               0x08000293   Thumb Code     0  libinit2.o(.ARM.Collect$$libinit$$00000017)
    __rt_lib_init_lc_time_1                  0x08000293   Thumb Code     0  libinit2.o(.ARM.Collect$$libinit$$00000019)
    __rt_lib_init_return                     0x08000293   Thumb Code     0  libinit2.o(.ARM.Collect$$libinit$$00000033)
    __rt_lib_init_signal_1                   0x08000293   Thumb Code     0  libinit2.o(.ARM.Collect$$libinit$$0000001D)
    __rt_lib_init_stdio_1                    0x08000293   Thumb Code     0  libinit2.o(.ARM.Collect$$libinit$$00000025)
    __rt_lib_shutdown                        0x08000295   Thumb Code     0  libshutdown.o(.ARM.Collect$$libshutdown$$00000000)
    __rt_lib_shutdown_fp_trap_1              0x08000297   Thumb Code     0  libshutdown2.o(.ARM.Collect$$libshutdown$$00000006)
    __rt_lib_shutdown_heap_1                 0x08000297   Thumb Code     0  libshutdown2.o(.ARM.Collect$$libshutdown$$0000000E)
    __rt_lib_shutdown_return                 0x08000297   Thumb Code     0  libshutdown2.o(.ARM.Collect$$libshutdown$$0000000F)
    __rt_lib_shutdown_signal_1               0x08000297   Thumb Code     0  libshutdown2.o(.ARM.Collect$$libshutdown$$00000009)
    __rt_lib_shutdown_stdio_1                0x08000297   Thumb Code     0  libshutdown2.o(.ARM.Collect$$libshutdown$$00000003)
    __rt_lib_shutdown_user_alloc_1           0x08000297   Thumb Code     0  libshutdown2.o(.ARM.Collect$$libshutdown$$0000000B)
    __rt_entry                               0x08000299   Thumb Code     0  __rtentry.o(.ARM.Collect$$rtentry$$00000000)
    __rt_entry_presh_1                       0x08000299   Thumb Code     0  __rtentry2.o(.ARM.Collect$$rtentry$$00000002)
    __rt_entry_sh                            0x08000299   Thumb Code     0  __rtentry4.o(.ARM.Collect$$rtentry$$00000004)
    __rt_entry_li                            0x0800029f   Thumb Code     0  __rtentry2.o(.ARM.Collect$$rtentry$$0000000A)
    __rt_entry_postsh_1                      0x0800029f   Thumb Code     0  __rtentry2.o(.ARM.Collect$$rtentry$$00000009)
    __rt_entry_main                          0x080002a3   Thumb Code     0  __rtentry2.o(.ARM.Collect$$rtentry$$0000000D)
    __rt_entry_postli_1                      0x080002a3   Thumb Code     0  __rtentry2.o(.ARM.Collect$$rtentry$$0000000C)
    __rt_exit                                0x080002ab   Thumb Code     0  rtexit.o(.ARM.Collect$$rtexit$$00000000)
    __rt_exit_ls                             0x080002ad   Thumb Code     0  rtexit2.o(.ARM.Collect$$rtexit$$00000003)
    __rt_exit_prels_1                        0x080002ad   Thumb Code     0  rtexit2.o(.ARM.Collect$$rtexit$$00000002)
    __rt_exit_exit                           0x080002b1   Thumb Code     0  rtexit2.o(.ARM.Collect$$rtexit$$00000004)
    Reset_Handler                            0x080002b9   Thumb Code     8  startup_stm32f10x_hd.o(.text)
    ADC1_2_IRQHandler                        0x080002d3   Thumb Code     0  startup_stm32f10x_hd.o(.text)
    ADC3_IRQHandler                          0x080002d3   Thumb Code     0  startup_stm32f10x_hd.o(.text)
    CAN1_RX1_IRQHandler                      0x080002d3   Thumb Code     0  startup_stm32f10x_hd.o(.text)
    CAN1_SCE_IRQHandler                      0x080002d3   Thumb Code     0  startup_stm32f10x_hd.o(.text)
    DMA1_Channel1_IRQHandler                 0x080002d3   Thumb Code     0  startup_stm32f10x_hd.o(.text)
    DMA1_Channel2_IRQHandler                 0x080002d3   Thumb Code     0  startup_stm32f10x_hd.o(.text)
    DMA1_Channel3_IRQHandler                 0x080002d3   Thumb Code     0  startup_stm32f10x_hd.o(.text)
    DMA1_Channel4_IRQHandler                 0x080002d3   Thumb Code     0  startup_stm32f10x_hd.o(.text)
    DMA1_Channel5_IRQHandler                 0x080002d3   Thumb Code     0  startup_stm32f10x_hd.o(.text)
    DMA1_Channel6_IRQHandler                 0x080002d3   Thumb Code     0  startup_stm32f10x_hd.o(.text)
    DMA1_Channel7_IRQHandler                 0x080002d3   Thumb Code     0  startup_stm32f10x_hd.o(.text)
    DMA2_Channel1_IRQHandler                 0x080002d3   Thumb Code     0  startup_stm32f10x_hd.o(.text)
    DMA2_Channel2_IRQHandler                 0x080002d3   Thumb Code     0  startup_stm32f10x_hd.o(.text)
    DMA2_Channel3_IRQHandler                 0x080002d3   Thumb Code     0  startup_stm32f10x_hd.o(.text)
    DMA2_Channel4_5_IRQHandler               0x080002d3   Thumb Code     0  startup_stm32f10x_hd.o(.text)
    EXTI0_IRQHandler                         0x080002d3   Thumb Code     0  startup_stm32f10x_hd.o(.text)
    EXTI15_10_IRQHandler                     0x080002d3   Thumb Code     0  startup_stm32f10x_hd.o(.text)
    EXTI1_IRQHandler                         0x080002d3   Thumb Code     0  startup_stm32f10x_hd.o(.text)
    EXTI2_IRQHandler                         0x080002d3   Thumb Code     0  startup_stm32f10x_hd.o(.text)
    EXTI3_IRQHandler                         0x080002d3   Thumb Code     0  startup_stm32f10x_hd.o(.text)
    EXTI4_IRQHandler                         0x080002d3   Thumb Code     0  startup_stm32f10x_hd.o(.text)
    EXTI9_5_IRQHandler                       0x080002d3   Thumb Code     0  startup_stm32f10x_hd.o(.text)
    FLASH_IRQHandler                         0x080002d3   Thumb Code     0  startup_stm32f10x_hd.o(.text)
    FSMC_IRQHandler                          0x080002d3   Thumb Code     0  startup_stm32f10x_hd.o(.text)
    I2C1_ER_IRQHandler                       0x080002d3   Thumb Code     0  startup_stm32f10x_hd.o(.text)
    I2C1_EV_IRQHandler                       0x080002d3   Thumb Code     0  startup_stm32f10x_hd.o(.text)
    I2C2_ER_IRQHandler                       0x080002d3   Thumb Code     0  startup_stm32f10x_hd.o(.text)
    I2C2_EV_IRQHandler                       0x080002d3   Thumb Code     0  startup_stm32f10x_hd.o(.text)
    PVD_IRQHandler                           0x080002d3   Thumb Code     0  startup_stm32f10x_hd.o(.text)
    RCC_IRQHandler                           0x080002d3   Thumb Code     0  startup_stm32f10x_hd.o(.text)
    RTCAlarm_IRQHandler                      0x080002d3   Thumb Code     0  startup_stm32f10x_hd.o(.text)
    RTC_IRQHandler                           0x080002d3   Thumb Code     0  startup_stm32f10x_hd.o(.text)
    SDIO_IRQHandler                          0x080002d3   Thumb Code     0  startup_stm32f10x_hd.o(.text)
    SPI1_IRQHandler                          0x080002d3   Thumb Code     0  startup_stm32f10x_hd.o(.text)
    SPI2_IRQHandler                          0x080002d3   Thumb Code     0  startup_stm32f10x_hd.o(.text)
    SPI3_IRQHandler                          0x080002d3   Thumb Code     0  startup_stm32f10x_hd.o(.text)
    TAMPER_IRQHandler                        0x080002d3   Thumb Code     0  startup_stm32f10x_hd.o(.text)
    TIM1_BRK_IRQHandler                      0x080002d3   Thumb Code     0  startup_stm32f10x_hd.o(.text)
    TIM1_CC_IRQHandler                       0x080002d3   Thumb Code     0  startup_stm32f10x_hd.o(.text)
    TIM1_TRG_COM_IRQHandler                  0x080002d3   Thumb Code     0  startup_stm32f10x_hd.o(.text)
    TIM1_UP_IRQHandler                       0x080002d3   Thumb Code     0  startup_stm32f10x_hd.o(.text)
    TIM2_IRQHandler                          0x080002d3   Thumb Code     0  startup_stm32f10x_hd.o(.text)
    TIM3_IRQHandler                          0x080002d3   Thumb Code     0  startup_stm32f10x_hd.o(.text)
    TIM5_IRQHandler                          0x080002d3   Thumb Code     0  startup_stm32f10x_hd.o(.text)
    TIM6_IRQHandler                          0x080002d3   Thumb Code     0  startup_stm32f10x_hd.o(.text)
    TIM8_BRK_IRQHandler                      0x080002d3   Thumb Code     0  startup_stm32f10x_hd.o(.text)
    TIM8_CC_IRQHandler                       0x080002d3   Thumb Code     0  startup_stm32f10x_hd.o(.text)
    TIM8_TRG_COM_IRQHandler                  0x080002d3   Thumb Code     0  startup_stm32f10x_hd.o(.text)
    TIM8_UP_IRQHandler                       0x080002d3   Thumb Code     0  startup_stm32f10x_hd.o(.text)
    UART4_IRQHandler                         0x080002d3   Thumb Code     0  startup_stm32f10x_hd.o(.text)
    UART5_IRQHandler                         0x080002d3   Thumb Code     0  startup_stm32f10x_hd.o(.text)
    USBWakeUp_IRQHandler                     0x080002d3   Thumb Code     0  startup_stm32f10x_hd.o(.text)
    USB_HP_CAN1_TX_IRQHandler                0x080002d3   Thumb Code     0  startup_stm32f10x_hd.o(.text)
    USB_LP_CAN1_RX0_IRQHandler               0x080002d3   Thumb Code     0  startup_stm32f10x_hd.o(.text)
    WWDG_IRQHandler                          0x080002d3   Thumb Code     0  startup_stm32f10x_hd.o(.text)
    __user_initial_stackheap                 0x080002d5   Thumb Code     0  startup_stm32f10x_hd.o(.text)
    __use_no_semihosting                     0x080002f9   Thumb Code     2  use_no_semi_2.o(.text)
    __c89printf                              0x080002fd   Thumb Code    20  c89printf.o(.text)
    __2printf                                0x08000315   Thumb Code    20  __2printf.o(.text)
    __2sprintf                               0x0800032d   Thumb Code    38  __2sprintf.o(.text)
    _printf_pre_padding                      0x08000359   Thumb Code    44  _printf_pad.o(.text)
    _printf_post_padding                     0x08000385   Thumb Code    34  _printf_pad.o(.text)
    _printf_str                              0x080003a7   Thumb Code    82  _printf_str.o(.text)
    _printf_int_dec                          0x080003f9   Thumb Code   104  _printf_dec.o(.text)
    _printf_longlong_hex                     0x08000471   Thumb Code    86  _printf_hex_int_ll_ptr.o(.text)
    _printf_int_hex                          0x080004c7   Thumb Code    28  _printf_hex_int_ll_ptr.o(.text)
    _printf_ll_hex                           0x080004e3   Thumb Code    12  _printf_hex_int_ll_ptr.o(.text)
    _printf_hex_ptr                          0x080004ef   Thumb Code    18  _printf_hex_int_ll_ptr.o(.text)
    __printf                                 0x08000505   Thumb Code   388  __printf_flags_ss_wp.o(.text)
    strstr                                   0x0800068d   Thumb Code    36  strstr.o(.text)
    strcat                                   0x080006b1   Thumb Code    24  strcat.o(.text)
    __aeabi_memclr                           0x080006c9   Thumb Code     0  rt_memclr.o(.text)
    __rt_memclr                              0x080006c9   Thumb Code    68  rt_memclr.o(.text)
    _memset                                  0x080006cd   Thumb Code     0  rt_memclr.o(.text)
    __aeabi_memclr4                          0x0800070d   Thumb Code     0  rt_memclr_w.o(.text)
    __aeabi_memclr8                          0x0800070d   Thumb Code     0  rt_memclr_w.o(.text)
    __rt_memclr_w                            0x0800070d   Thumb Code    78  rt_memclr_w.o(.text)
    _memset_w                                0x08000711   Thumb Code     0  rt_memclr_w.o(.text)
    __use_two_region_memory                  0x0800075b   Thumb Code     2  heapauxi.o(.text)
    __rt_heap_escrow$2region                 0x0800075d   Thumb Code     2  heapauxi.o(.text)
    __rt_heap_expand$2region                 0x0800075f   Thumb Code     2  heapauxi.o(.text)
    __I$use$semihosting                      0x08000761   Thumb Code     0  use_no_semi.o(.text)
    __use_no_semihosting_swi                 0x08000761   Thumb Code     2  use_no_semi.o(.text)
    _printf_truncate_signed                  0x08000763   Thumb Code    18  _printf_truncate.o(.text)
    _printf_truncate_unsigned                0x08000775   Thumb Code    18  _printf_truncate.o(.text)
    _printf_int_common                       0x08000787   Thumb Code   178  _printf_intcommon.o(.text)
    _printf_charcount                        0x08000839   Thumb Code    40  _printf_charcount.o(.text)
    __lib_sel_fp_printf                      0x08000861   Thumb Code     2  _printf_fp_dec.o(.text)
    _printf_fp_dec_real                      0x08000a0f   Thumb Code   620  _printf_fp_dec.o(.text)
    _printf_char_common                      0x08000c87   Thumb Code    32  _printf_char_common.o(.text)
    _sputc                                   0x08000cad   Thumb Code    10  _sputc.o(.text)
    _printf_cs_common                        0x08000cb7   Thumb Code    20  _printf_char.o(.text)
    _printf_char                             0x08000ccb   Thumb Code    16  _printf_char.o(.text)
    _printf_string                           0x08000cdb   Thumb Code     8  _printf_char.o(.text)
    _printf_char_file                        0x08000ce5   Thumb Code    32  _printf_char_file.o(.text)
    _printf_wctomb                           0x08000d09   Thumb Code   182  _printf_wctomb.o(.text)
    _printf_longlong_dec                     0x08000dc5   Thumb Code   108  _printf_longlong_dec.o(.text)
    _printf_longlong_oct                     0x08000e41   Thumb Code    68  _printf_oct_int_ll.o(.text)
    _printf_int_oct                          0x08000e85   Thumb Code    24  _printf_oct_int_ll.o(.text)
    _printf_ll_oct                           0x08000e9d   Thumb Code    12  _printf_oct_int_ll.o(.text)
    __rt_locale                              0x08000eb1   Thumb Code     8  rt_locale_intlibspace.o(.text)
    _ll_udiv10                               0x08000eb9   Thumb Code   138  lludiv10.o(.text)
    _printf_fp_infnan                        0x08000f45   Thumb Code   112  _printf_fp_infnan.o(.text)
    _printf_lcs_common                       0x08000fc5   Thumb Code    20  _printf_wchar.o(.text)
    _printf_wchar                            0x08000fd9   Thumb Code    16  _printf_wchar.o(.text)
    _printf_wstring                          0x08000fe9   Thumb Code     8  _printf_wchar.o(.text)
    _btod_etento                             0x08000ff1   Thumb Code   216  bigflt0.o(.text)
    ferror                                   0x080010cd   Thumb Code     8  ferror.o(.text)
    _wcrtomb                                 0x080010d5   Thumb Code    64  _wcrtomb.o(.text)
    __user_libspace                          0x08001115   Thumb Code     8  libspace.o(.text)
    __user_perproc_libspace                  0x08001115   Thumb Code     0  libspace.o(.text)
    __user_perthread_libspace                0x08001115   Thumb Code     0  libspace.o(.text)
    __user_setup_stackheap                   0x0800111d   Thumb Code    74  sys_stackheap_outer.o(.text)
    __rt_ctype_table                         0x08001169   Thumb Code    16  rt_ctype_table.o(.text)
    exit                                     0x08001179   Thumb Code    12  exit.o(.text)
    strcmp                                   0x08001185   Thumb Code   128  strcmpv7m.o(.text)
    _btod_d2e                                0x08001205   Thumb Code    62  btod.o(CL$$btod_d2e)
    _d2e_denorm_low                          0x08001243   Thumb Code    70  btod.o(CL$$btod_d2e_denorm_low)
    _d2e_norm_op1                            0x08001289   Thumb Code    96  btod.o(CL$$btod_d2e_norm_op1)
    __btod_div_common                        0x080012e9   Thumb Code   696  btod.o(CL$$btod_div_common)
    _e2e                                     0x08001621   Thumb Code   198  btod.o(CL$$btod_e2e)
    _btod_ediv                               0x080016e7   Thumb Code    40  btod.o(CL$$btod_ediv)
    _btod_emul                               0x0800170f   Thumb Code    40  btod.o(CL$$btod_emul)
    __btod_mult_common                       0x08001737   Thumb Code   580  btod.o(CL$$btod_mult_common)
    BC28_ALYIOTSenddataAdc                   0x0800197d   Thumb Code   198  bc28.o(i.BC28_ALYIOTSenddataAdc)
    BC28_Init                                0x08001a99   Thumb Code   462  bc28.o(i.BC28_Init)
    BC28_RegALIYUNIOT                        0x08001d9d   Thumb Code   196  bc28.o(i.BC28_RegALIYUNIOT)
    BusFault_Handler                         0x08001f59   Thumb Code     2  stm32f10x_it.o(i.BusFault_Handler)
    CTR_Init                                 0x08001f5d   Thumb Code    38  led.o(i.CTR_Init)
    Clear_Buffer                             0x08001f89   Thumb Code    38  bc28.o(i.Clear_Buffer)
    DebugMon_Handler                         0x08001fb5   Thumb Code     2  stm32f10x_it.o(i.DebugMon_Handler)
    FSMC_NORSRAMCmd                          0x08001fb9   Thumb Code    26  stm32f10x_fsmc.o(i.FSMC_NORSRAMCmd)
    FSMC_NORSRAMInit                         0x08001fd9   Thumb Code   200  stm32f10x_fsmc.o(i.FSMC_NORSRAMInit)
    GPIO_Init                                0x080020a1   Thumb Code   156  stm32f10x_gpio.o(i.GPIO_Init)
    GPIO_ResetBits                           0x0800213d   Thumb Code     4  stm32f10x_gpio.o(i.GPIO_ResetBits)
    GPIO_SetBits                             0x08002141   Thumb Code     4  stm32f10x_gpio.o(i.GPIO_SetBits)
    GPS_Analysis                             0x08002145   Thumb Code    54  gps.o(i.GPS_Analysis)
    Gps_Msg_Show                             0x0800217d   Thumb Code   440  main.o(i.Gps_Msg_Show)
    HardFault_Handler                        0x0800243d   Thumb Code     2  stm32f10x_it.o(i.HardFault_Handler)
    KEY_Init                                 0x08002441   Thumb Code    52  key.o(i.KEY_Init)
    LCD_Clear                                0x0800247d   Thumb Code   100  lcd.o(i.LCD_Clear)
    LCD_Display_Dir                          0x080024e9   Thumb Code   304  lcd.o(i.LCD_Display_Dir)
    LCD_Fast_DrawPoint                       0x0800261d   Thumb Code   276  lcd.o(i.LCD_Fast_DrawPoint)
    LCD_Fill                                 0x08002739   Thumb Code   132  lcd.o(i.LCD_Fill)
    LCD_Init                                 0x080027c5   Thumb Code 11794  lcd.o(i.LCD_Init)
    LCD_RD_DATA                              0x080055dd   Thumb Code    16  lcd.o(i.LCD_RD_DATA)
    LCD_ReadReg                              0x080055f1   Thumb Code    20  lcd.o(i.LCD_ReadReg)
    LCD_SSD_BackLightSet                     0x08005609   Thumb Code    50  lcd.o(i.LCD_SSD_BackLightSet)
    LCD_Scan_Dir                             0x08005645   Thumb Code   414  lcd.o(i.LCD_Scan_Dir)
    LCD_SetCursor                            0x080057ed   Thumb Code   320  lcd.o(i.LCD_SetCursor)
    LCD_ShowChar                             0x08005935   Thumb Code   182  lcd.o(i.LCD_ShowChar)
    LCD_ShowString                           0x08005a01   Thumb Code    84  lcd.o(i.LCD_ShowString)
    LCD_WriteRAM_Prepare                     0x08005a55   Thumb Code    10  lcd.o(i.LCD_WriteRAM_Prepare)
    LCD_WriteReg                             0x08005a69   Thumb Code    10  lcd.o(i.LCD_WriteReg)
    LED_Init                                 0x08005a79   Thumb Code    70  led.o(i.LED_Init)
    MemManage_Handler                        0x08005ac9   Thumb Code     2  stm32f10x_it.o(i.MemManage_Handler)
    NMEA_BDGSV_Analysis                      0x08005acd   Thumb Code   230  gps.o(i.NMEA_BDGSV_Analysis)
    NMEA_Comma_Pos                           0x08005bbd   Thumb Code    42  gps.o(i.NMEA_Comma_Pos)
    NMEA_GNGGA_Analysis                      0x08005be9   Thumb Code    88  gps.o(i.NMEA_GNGGA_Analysis)
    NMEA_GNGSA_Analysis                      0x08005c49   Thumb Code   150  gps.o(i.NMEA_GNGSA_Analysis)
    NMEA_GNRMC_Analysis                      0x08005ce9   Thumb Code   480  gps.o(i.NMEA_GNRMC_Analysis)
    NMEA_GNVTG_Analysis                      0x08005ed5   Thumb Code    68  gps.o(i.NMEA_GNVTG_Analysis)
    NMEA_GPGSV_Analysis                      0x08005f21   Thumb Code   222  gps.o(i.NMEA_GPGSV_Analysis)
    NMEA_Pow                                 0x08006009   Thumb Code    16  gps.o(i.NMEA_Pow)
    NMEA_Str2num                             0x08006019   Thumb Code   192  gps.o(i.NMEA_Str2num)
    NMI_Handler                              0x080060d9   Thumb Code     2  stm32f10x_it.o(i.NMI_Handler)
    NVIC_Init                                0x080060dd   Thumb Code    94  misc.o(i.NVIC_Init)
    NVIC_PriorityGroupConfig                 0x08006141   Thumb Code    10  misc.o(i.NVIC_PriorityGroupConfig)
    PendSV_Handler                           0x08006155   Thumb Code     2  stm32f10x_it.o(i.PendSV_Handler)
    RCC_AHBPeriphClockCmd                    0x08006159   Thumb Code    18  stm32f10x_rcc.o(i.RCC_AHBPeriphClockCmd)
    RCC_APB1PeriphClockCmd                   0x08006171   Thumb Code    18  stm32f10x_rcc.o(i.RCC_APB1PeriphClockCmd)
    RCC_APB1PeriphResetCmd                   0x08006189   Thumb Code    18  stm32f10x_rcc.o(i.RCC_APB1PeriphResetCmd)
    RCC_APB2PeriphClockCmd                   0x080061a1   Thumb Code    18  stm32f10x_rcc.o(i.RCC_APB2PeriphClockCmd)
    RCC_APB2PeriphResetCmd                   0x080061b9   Thumb Code    18  stm32f10x_rcc.o(i.RCC_APB2PeriphResetCmd)
    RCC_GetClocksFreq                        0x080061d1   Thumb Code   132  stm32f10x_rcc.o(i.RCC_GetClocksFreq)
    SVC_Handler                              0x08006265   Thumb Code     2  stm32f10x_it.o(i.SVC_Handler)
    SkyTra_Cfg_Ack_Check                     0x08006311   Thumb Code    88  gps.o(i.SkyTra_Cfg_Ack_Check)
    SkyTra_Cfg_Prt                           0x08006371   Thumb Code    78  gps.o(i.SkyTra_Cfg_Prt)
    SkyTra_Cfg_Rate                          0x080063c9   Thumb Code    56  gps.o(i.SkyTra_Cfg_Rate)
    SkyTra_Cfg_Tp                            0x08006405   Thumb Code    76  gps.o(i.SkyTra_Cfg_Tp)
    SkyTra_Send_Date                         0x08006455   Thumb Code    30  gps.o(i.SkyTra_Send_Date)
    SysTick_CLKSourceConfig                  0x08006479   Thumb Code    24  misc.o(i.SysTick_CLKSourceConfig)
    SysTick_Handler                          0x08006491   Thumb Code     2  stm32f10x_it.o(i.SysTick_Handler)
    SystemInit                               0x08006495   Thumb Code    64  system_stm32f10x.o(i.SystemInit)
    TIM4_IRQHandler                          0x080064e5   Thumb Code    50  usmart.o(i.TIM4_IRQHandler)
    TIM7_IRQHandler                          0x08006521   Thumb Code    48  timer.o(i.TIM7_IRQHandler)
    TIM7_Int_Init                            0x08006559   Thumb Code    90  timer.o(i.TIM7_Int_Init)
    TIM_ClearFlag                            0x080065b9   Thumb Code     6  stm32f10x_tim.o(i.TIM_ClearFlag)
    TIM_ClearITPendingBit                    0x080065bf   Thumb Code     6  stm32f10x_tim.o(i.TIM_ClearITPendingBit)
    TIM_Cmd                                  0x080065c5   Thumb Code    20  stm32f10x_tim.o(i.TIM_Cmd)
    TIM_GetCounter                           0x080065d9   Thumb Code     4  stm32f10x_tim.o(i.TIM_GetCounter)
    TIM_GetFlagStatus                        0x080065dd   Thumb Code    14  stm32f10x_tim.o(i.TIM_GetFlagStatus)
    TIM_GetITStatus                          0x080065eb   Thumb Code    24  stm32f10x_tim.o(i.TIM_GetITStatus)
    TIM_ITConfig                             0x08006603   Thumb Code    16  stm32f10x_tim.o(i.TIM_ITConfig)
    TIM_SetAutoreload                        0x08006613   Thumb Code     4  stm32f10x_tim.o(i.TIM_SetAutoreload)
    TIM_SetCounter                           0x08006617   Thumb Code     4  stm32f10x_tim.o(i.TIM_SetCounter)
    TIM_TimeBaseInit                         0x0800661d   Thumb Code   114  stm32f10x_tim.o(i.TIM_TimeBaseInit)
    Timer4_Init                              0x080066b9   Thumb Code    90  usmart.o(i.Timer4_Init)
    UART2_send_byte                          0x08006719   Thumb Code    30  usart2.o(i.UART2_send_byte)
    USART1_IRQHandler                        0x0800673d   Thumb Code    88  usart.o(i.USART1_IRQHandler)
    USART2_IRQHandler                        0x080067a1   Thumb Code    36  usart2.o(i.USART2_IRQHandler)
    USART3_IRQHandler                        0x080067c9   Thumb Code    88  usart3.o(i.USART3_IRQHandler)
    USART_Cmd                                0x08006831   Thumb Code    20  stm32f10x_usart.o(i.USART_Cmd)
    USART_DeInit                             0x08006845   Thumb Code    96  stm32f10x_usart.o(i.USART_DeInit)
    USART_GetFlagStatus                      0x080068b9   Thumb Code    14  stm32f10x_usart.o(i.USART_GetFlagStatus)
    USART_GetITStatus                        0x080068c7   Thumb Code    62  stm32f10x_usart.o(i.USART_GetITStatus)
    USART_ITConfig                           0x08006905   Thumb Code    48  stm32f10x_usart.o(i.USART_ITConfig)
    USART_Init                               0x08006935   Thumb Code   166  stm32f10x_usart.o(i.USART_Init)
    USART_ReceiveData                        0x080069e1   Thumb Code     8  stm32f10x_usart.o(i.USART_ReceiveData)
    USART_SendData                           0x080069e9   Thumb Code     8  stm32f10x_usart.o(i.USART_SendData)
    Uart2_SendStr                            0x080069f1   Thumb Code    26  usart2.o(i.Uart2_SendStr)
    UsageFault_Handler                       0x08006a11   Thumb Code     2  stm32f10x_it.o(i.UsageFault_Handler)
    __ARM_fpclassify                         0x08006a13   Thumb Code    40  fpclassify.o(i.__ARM_fpclassify)
    _is_digit                                0x08006a3b   Thumb Code    14  __printf_wp.o(i._is_digit)
    _sys_exit                                0x08006a49   Thumb Code     2  usart.o(i._sys_exit)
    delay_init                               0x08006a4d   Thumb Code    46  delay.o(i.delay_init)
    delay_ms                                 0x08006a89   Thumb Code    46  delay.o(i.delay_ms)
    delay_us                                 0x08006abd   Thumb Code    46  delay.o(i.delay_us)
    fputc                                    0x08006af1   Thumb Code    18  usart.o(i.fputc)
    main                                     0x08006b09   Thumb Code   528  main.o(i.main)
    nbiot_receive_process_event              0x08006e0d   Thumb Code    28  usart2.o(i.nbiot_receive_process_event)
    read_addr                                0x08006e2d   Thumb Code     4  usmart.o(i.read_addr)
    uart2_init                               0x08006e31   Thumb Code   160  usart2.o(i.uart2_init)
    uart_init                                0x08006ed9   Thumb Code   152  usart.o(i.uart_init)
    usart3_init                              0x08006f79   Thumb Code   188  usart3.o(i.usart3_init)
    usmart_cmd_rec                           0x08007045   Thumb Code   144  usmart.o(i.usmart_cmd_rec)
    usmart_exe                               0x080070d9   Thumb Code   510  usmart.o(i.usmart_exe)
    usmart_get_aparm                         0x08007339   Thumb Code   156  usmart_str.o(i.usmart_get_aparm)
    usmart_get_cmdname                       0x080073d5   Thumb Code    46  usmart_str.o(i.usmart_get_cmdname)
    usmart_get_fname                         0x08007405   Thumb Code   352  usmart_str.o(i.usmart_get_fname)
    usmart_get_fparam                        0x0800756d   Thumb Code   202  usmart_str.o(i.usmart_get_fparam)
    usmart_get_parmpos                       0x0800763d   Thumb Code    30  usmart_str.o(i.usmart_get_parmpos)
    usmart_get_runtime                       0x08007661   Thumb Code    48  usmart.o(i.usmart_get_runtime)
    usmart_init                              0x08007699   Thumb Code    36  usmart.o(i.usmart_init)
    usmart_pow                               0x080076c1   Thumb Code    16  usmart_str.o(i.usmart_pow)
    usmart_reset_runtime                     0x080076d1   Thumb Code    40  usmart.o(i.usmart_reset_runtime)
    usmart_scan                              0x08007701   Thumb Code    94  usmart.o(i.usmart_scan)
    usmart_search_nextc                      0x080077a5   Thumb Code    16  usmart_str.o(i.usmart_search_nextc)
    usmart_str2num                           0x080077b5   Thumb Code   160  usmart_str.o(i.usmart_str2num)
    usmart_strcmp                            0x08007855   Thumb Code    24  usmart_str.o(i.usmart_strcmp)
    usmart_strcopy                           0x0800786d   Thumb Code    18  usmart_str.o(i.usmart_strcopy)
    usmart_strlen                            0x0800787f   Thumb Code    18  usmart_str.o(i.usmart_strlen)
    usmart_sys_cmd_exe                       0x08007891   Thumb Code  1442  usmart.o(i.usmart_sys_cmd_exe)
    write_addr                               0x08007f01   Thumb Code     4  usmart.o(i.write_addr)
    _get_lc_numeric                          0x08007f05   Thumb Code    44  lc_numeric_c.o(locale$$code)
    _get_lc_ctype                            0x08007f31   Thumb Code    44  lc_ctype_c.o(locale$$code)
    __aeabi_d2uiz                            0x08007f5d   Thumb Code     0  dfixu.o(x$fpl$dfixu)
    _dfixu                                   0x08007f5d   Thumb Code    90  dfixu.o(x$fpl$dfixu)
    __aeabi_ui2d                             0x08007fb7   Thumb Code     0  dflt_clz.o(x$fpl$dfltu)
    _dfltu                                   0x08007fb7   Thumb Code    38  dflt_clz.o(x$fpl$dfltu)
    __aeabi_dmul                             0x08007fdd   Thumb Code     0  dmul.o(x$fpl$dmul)
    _dmul                                    0x08007fdd   Thumb Code   332  dmul.o(x$fpl$dmul)
    __fpl_dnaninf                            0x08008131   Thumb Code   156  dnaninf.o(x$fpl$dnaninf)
    __fpl_dretinf                            0x080081cd   Thumb Code    12  dretinf.o(x$fpl$dretinf)
    __aeabi_f2d                              0x080081d9   Thumb Code     0  f2d.o(x$fpl$f2d)
    _f2d                                     0x080081d9   Thumb Code    86  f2d.o(x$fpl$f2d)
    __aeabi_fadd                             0x08008231   Thumb Code     0  faddsub_clz.o(x$fpl$fadd)
    _fadd                                    0x08008231   Thumb Code   196  faddsub_clz.o(x$fpl$fadd)
    __aeabi_fdiv                             0x080082f5   Thumb Code     0  fdiv.o(x$fpl$fdiv)
    _fdiv                                    0x080082f5   Thumb Code   384  fdiv.o(x$fpl$fdiv)
    __aeabi_f2uiz                            0x08008479   Thumb Code     0  ffixu.o(x$fpl$ffixu)
    _ffixu                                   0x08008479   Thumb Code    62  ffixu.o(x$fpl$ffixu)
    __aeabi_i2f                              0x080084b9   Thumb Code     0  fflt_clz.o(x$fpl$fflt)
    _fflt                                    0x080084b9   Thumb Code    48  fflt_clz.o(x$fpl$fflt)
    __aeabi_ui2f                             0x080084e9   Thumb Code     0  fflt_clz.o(x$fpl$ffltu)
    _ffltu                                   0x080084e9   Thumb Code    38  fflt_clz.o(x$fpl$ffltu)
    __aeabi_fmul                             0x08008511   Thumb Code     0  fmul.o(x$fpl$fmul)
    _fmul                                    0x08008511   Thumb Code   258  fmul.o(x$fpl$fmul)
    __fpl_fnaninf                            0x08008613   Thumb Code   140  fnaninf.o(x$fpl$fnaninf)
    __fpl_fretinf                            0x0800869f   Thumb Code    10  fretinf.o(x$fpl$fretinf)
    __aeabi_fsub                             0x080086a9   Thumb Code     0  faddsub_clz.o(x$fpl$fsub)
    _fsub                                    0x080086a9   Thumb Code   234  faddsub_clz.o(x$fpl$fsub)
    _printf_fp_dec                           0x08008793   Thumb Code     4  printf1.o(x$fpl$printf1)
    __I$use$fp                               0x08008796   Number         0  usenofp.o(x$fpl$usenofp)
    BAUD_id                                  0x08008798   Data          36  gps.o(.constdata)
    asc2_1206                                0x080087bc   Data        1140  lcd.o(.constdata)
    asc2_1608                                0x08008c30   Data        1520  lcd.o(.constdata)
    asc2_2412                                0x08009220   Data        3420  lcd.o(.constdata)
    Region$$Table$$Base                      0x0800a128   Number         0  anon$$obj.o(Region$$Table)
    Region$$Table$$Limit                     0x0800a148   Number         0  anon$$obj.o(Region$$Table)
    __ctype                                  0x0800a171   Data           0  lc_ctype_c.o(locale$$data)
    fixmode_tbl                              0x20000000   Data          16  main.o(.data)
    SystemCoreClock                          0x20000010   Data           4  system_stm32f10x.o(.data)
    AHBPrescTable                            0x20000014   Data          16  system_stm32f10x.o(.data)
    POINT_COLOR                              0x20000024   Data           2  lcd.o(.data)
    BACK_COLOR                               0x20000026   Data           2  lcd.o(.data)
    USART3_RX_STA                            0x20000028   Data           2  usart3.o(.data)
    strx                                     0x2000002c   Data           4  bc28.o(.data)
    extstrx                                  0x20000030   Data           4  bc28.o(.data)
    err                                      0x20000034   Data           4  bc28.o(.data)
    USART_RX_STA                             0x2000003c   Data           2  usart.o(.data)
    __stdout                                 0x20000040   Data           4  usart.o(.data)
    sys_cmd_tab                              0x20000058   Data          28  usmart.o(.data)
    usmart_nametab                           0x20000074   Data          40  usmart_config.o(.data)
    usmart_dev                               0x2000009c   Data         244  usmart_config.o(.data)
    USART1_TX_BUF                            0x20000190   Data         600  main.o(.bss)
    gpsx                                     0x200003e8   Data         166  main.o(.bss)
    dtbuf                                    0x20000490   Data          50  main.o(.bss)
    lcddev                                   0x200004c2   Data          14  lcd.o(.bss)
    USART3_RX_BUF                            0x200004d0   Data         600  usart3.o(.bss)
    USART3_TX_BUF                            0x20000728   Data         600  usart3.o(.bss)
    atstr                                    0x20000980   Data         256  bc28.o(.bss)
    buf_uart2                                0x20000a80   Data         264  usart2.o(.bss)
    USART_RX_BUF                             0x20000b88   Data         200  usart.o(.bss)
    __libspace_start                         0x20000c50   Data          96  libspace.o(.bss)
    __temporary_stack_top$libspace           0x20000cb0   Data           0  libspace.o(.bss)



==============================================================================

Memory Map of the image

  Image Entry point : 0x08000131

  Load Region LR_IROM1 (Base: 0x08000000, Size: 0x0000a404, Max: 0x00080000, ABSOLUTE, COMPRESSED[0x0000a2e8])

    Execution Region ER_IROM1 (Base: 0x08000000, Size: 0x0000a274, Max: 0x00080000, ABSOLUTE)

    Base Addr    Size         Type   Attr      Idx    E Section Name        Object

    0x08000000   0x00000130   Data   RO          301    RESET               startup_stm32f10x_hd.o
    0x08000130   0x00000008   Code   RO         2370  * !!!main             c_w.l(__main.o)
    0x08000138   0x00000034   Code   RO         2675    !!!scatter          c_w.l(__scatter.o)
    0x0800016c   0x0000005a   Code   RO         2673    !!dczerorl2         c_w.l(__dczerorl2.o)
    0x080001c6   0x00000002   PAD
    0x080001c8   0x0000001c   Code   RO         2677    !!handler_zi        c_w.l(__scatter_zi.o)
    0x080001e4   0x00000000   Code   RO         2357    .ARM.Collect$$_printf_percent$$00000000  c_w.l(_printf_percent.o)
    0x080001e4   0x00000006   Code   RO         2440    .ARM.Collect$$_printf_percent$$00000001  c_w.l(_printf_n.o)
    0x080001ea   0x00000006   Code   RO         2441    .ARM.Collect$$_printf_percent$$00000002  c_w.l(_printf_p.o)
    0x080001f0   0x00000006   Code   RO         2356    .ARM.Collect$$_printf_percent$$00000003  c_w.l(_printf_f.o)
    0x080001f6   0x00000006   Code   RO         2444    .ARM.Collect$$_printf_percent$$00000004  c_w.l(_printf_e.o)
    0x080001fc   0x00000006   Code   RO         2445    .ARM.Collect$$_printf_percent$$00000005  c_w.l(_printf_g.o)
    0x08000202   0x00000006   Code   RO         2446    .ARM.Collect$$_printf_percent$$00000006  c_w.l(_printf_a.o)
    0x08000208   0x0000000a   Code   RO         2451    .ARM.Collect$$_printf_percent$$00000007  c_w.l(_printf_ll.o)
    0x08000212   0x00000006   Code   RO         2443    .ARM.Collect$$_printf_percent$$00000008  c_w.l(_printf_i.o)
    0x08000218   0x00000006   Code   RO         2354    .ARM.Collect$$_printf_percent$$00000009  c_w.l(_printf_d.o)
    0x0800021e   0x00000006   Code   RO         2355    .ARM.Collect$$_printf_percent$$0000000A  c_w.l(_printf_u.o)
    0x08000224   0x00000006   Code   RO         2442    .ARM.Collect$$_printf_percent$$0000000B  c_w.l(_printf_o.o)
    0x0800022a   0x00000006   Code   RO         2353    .ARM.Collect$$_printf_percent$$0000000C  c_w.l(_printf_x.o)
    0x08000230   0x00000006   Code   RO         2448    .ARM.Collect$$_printf_percent$$0000000D  c_w.l(_printf_lli.o)
    0x08000236   0x00000006   Code   RO         2449    .ARM.Collect$$_printf_percent$$0000000E  c_w.l(_printf_lld.o)
    0x0800023c   0x00000006   Code   RO         2450    .ARM.Collect$$_printf_percent$$0000000F  c_w.l(_printf_llu.o)
    0x08000242   0x00000006   Code   RO         2455    .ARM.Collect$$_printf_percent$$00000010  c_w.l(_printf_llo.o)
    0x08000248   0x00000006   Code   RO         2456    .ARM.Collect$$_printf_percent$$00000011  c_w.l(_printf_llx.o)
    0x0800024e   0x0000000a   Code   RO         2452    .ARM.Collect$$_printf_percent$$00000012  c_w.l(_printf_l.o)
    0x08000258   0x00000006   Code   RO         2351    .ARM.Collect$$_printf_percent$$00000013  c_w.l(_printf_c.o)
    0x0800025e   0x00000006   Code   RO         2352    .ARM.Collect$$_printf_percent$$00000014  c_w.l(_printf_s.o)
    0x08000264   0x00000006   Code   RO         2453    .ARM.Collect$$_printf_percent$$00000015  c_w.l(_printf_lc.o)
    0x0800026a   0x00000006   Code   RO         2454    .ARM.Collect$$_printf_percent$$00000016  c_w.l(_printf_ls.o)
    0x08000270   0x00000004   Code   RO         2447    .ARM.Collect$$_printf_percent$$00000017  c_w.l(_printf_percent_end.o)
    0x08000274   0x00000002   Code   RO         2548    .ARM.Collect$$libinit$$00000000  c_w.l(libinit.o)
    0x08000276   0x00000000   Code   RO         2550    .ARM.Collect$$libinit$$00000002  c_w.l(libinit2.o)
    0x08000276   0x00000000   Code   RO         2552    .ARM.Collect$$libinit$$00000004  c_w.l(libinit2.o)
    0x08000276   0x00000000   Code   RO         2555    .ARM.Collect$$libinit$$0000000A  c_w.l(libinit2.o)
    0x08000276   0x00000000   Code   RO         2557    .ARM.Collect$$libinit$$0000000C  c_w.l(libinit2.o)
    0x08000276   0x00000000   Code   RO         2559    .ARM.Collect$$libinit$$0000000E  c_w.l(libinit2.o)
    0x08000276   0x00000006   Code   RO         2560    .ARM.Collect$$libinit$$0000000F  c_w.l(libinit2.o)
    0x0800027c   0x00000000   Code   RO         2562    .ARM.Collect$$libinit$$00000011  c_w.l(libinit2.o)
    0x0800027c   0x0000000c   Code   RO         2563    .ARM.Collect$$libinit$$00000012  c_w.l(libinit2.o)
    0x08000288   0x00000000   Code   RO         2564    .ARM.Collect$$libinit$$00000013  c_w.l(libinit2.o)
    0x08000288   0x00000000   Code   RO         2566    .ARM.Collect$$libinit$$00000015  c_w.l(libinit2.o)
    0x08000288   0x0000000a   Code   RO         2567    .ARM.Collect$$libinit$$00000016  c_w.l(libinit2.o)
    0x08000292   0x00000000   Code   RO         2568    .ARM.Collect$$libinit$$00000017  c_w.l(libinit2.o)
    0x08000292   0x00000000   Code   RO         2570    .ARM.Collect$$libinit$$00000019  c_w.l(libinit2.o)
    0x08000292   0x00000000   Code   RO         2572    .ARM.Collect$$libinit$$0000001B  c_w.l(libinit2.o)
    0x08000292   0x00000000   Code   RO         2574    .ARM.Collect$$libinit$$0000001D  c_w.l(libinit2.o)
    0x08000292   0x00000000   Code   RO         2576    .ARM.Collect$$libinit$$0000001F  c_w.l(libinit2.o)
    0x08000292   0x00000000   Code   RO         2578    .ARM.Collect$$libinit$$00000021  c_w.l(libinit2.o)
    0x08000292   0x00000000   Code   RO         2580    .ARM.Collect$$libinit$$00000023  c_w.l(libinit2.o)
    0x08000292   0x00000000   Code   RO         2582    .ARM.Collect$$libinit$$00000025  c_w.l(libinit2.o)
    0x08000292   0x00000000   Code   RO         2586    .ARM.Collect$$libinit$$0000002C  c_w.l(libinit2.o)
    0x08000292   0x00000000   Code   RO         2588    .ARM.Collect$$libinit$$0000002E  c_w.l(libinit2.o)
    0x08000292   0x00000000   Code   RO         2590    .ARM.Collect$$libinit$$00000030  c_w.l(libinit2.o)
    0x08000292   0x00000000   Code   RO         2592    .ARM.Collect$$libinit$$00000032  c_w.l(libinit2.o)
    0x08000292   0x00000002   Code   RO         2593    .ARM.Collect$$libinit$$00000033  c_w.l(libinit2.o)
    0x08000294   0x00000002   Code   RO         2624    .ARM.Collect$$libshutdown$$00000000  c_w.l(libshutdown.o)
    0x08000296   0x00000000   Code   RO         2634    .ARM.Collect$$libshutdown$$00000003  c_w.l(libshutdown2.o)
    0x08000296   0x00000000   Code   RO         2637    .ARM.Collect$$libshutdown$$00000006  c_w.l(libshutdown2.o)
    0x08000296   0x00000000   Code   RO         2640    .ARM.Collect$$libshutdown$$00000009  c_w.l(libshutdown2.o)
    0x08000296   0x00000000   Code   RO         2642    .ARM.Collect$$libshutdown$$0000000B  c_w.l(libshutdown2.o)
    0x08000296   0x00000000   Code   RO         2645    .ARM.Collect$$libshutdown$$0000000E  c_w.l(libshutdown2.o)
    0x08000296   0x00000002   Code   RO         2646    .ARM.Collect$$libshutdown$$0000000F  c_w.l(libshutdown2.o)
    0x08000298   0x00000000   Code   RO         2412    .ARM.Collect$$rtentry$$00000000  c_w.l(__rtentry.o)
    0x08000298   0x00000000   Code   RO         2467    .ARM.Collect$$rtentry$$00000002  c_w.l(__rtentry2.o)
    0x08000298   0x00000006   Code   RO         2479    .ARM.Collect$$rtentry$$00000004  c_w.l(__rtentry4.o)
    0x0800029e   0x00000000   Code   RO         2469    .ARM.Collect$$rtentry$$00000009  c_w.l(__rtentry2.o)
    0x0800029e   0x00000004   Code   RO         2470    .ARM.Collect$$rtentry$$0000000A  c_w.l(__rtentry2.o)
    0x080002a2   0x00000000   Code   RO         2472    .ARM.Collect$$rtentry$$0000000C  c_w.l(__rtentry2.o)
    0x080002a2   0x00000008   Code   RO         2473    .ARM.Collect$$rtentry$$0000000D  c_w.l(__rtentry2.o)
    0x080002aa   0x00000002   Code   RO         2594    .ARM.Collect$$rtexit$$00000000  c_w.l(rtexit.o)
    0x080002ac   0x00000000   Code   RO         2604    .ARM.Collect$$rtexit$$00000002  c_w.l(rtexit2.o)
    0x080002ac   0x00000004   Code   RO         2605    .ARM.Collect$$rtexit$$00000003  c_w.l(rtexit2.o)
    0x080002b0   0x00000006   Code   RO         2606    .ARM.Collect$$rtexit$$00000004  c_w.l(rtexit2.o)
    0x080002b6   0x00000002   PAD
    0x080002b8   0x00000040   Code   RO          302    .text               startup_stm32f10x_hd.o
    0x080002f8   0x00000002   Code   RO         2288    .text               c_w.l(use_no_semi_2.o)
    0x080002fa   0x00000002   PAD
    0x080002fc   0x00000018   Code   RO         2290    .text               c_w.l(c89printf.o)
    0x08000314   0x00000018   Code   RO         2294    .text               c_w.l(__2printf.o)
    0x0800032c   0x0000002c   Code   RO         2296    .text               c_w.l(__2sprintf.o)
    0x08000358   0x0000004e   Code   RO         2304    .text               c_w.l(_printf_pad.o)
    0x080003a6   0x00000052   Code   RO         2306    .text               c_w.l(_printf_str.o)
    0x080003f8   0x00000078   Code   RO         2308    .text               c_w.l(_printf_dec.o)
    0x08000470   0x00000094   Code   RO         2328    .text               c_w.l(_printf_hex_int_ll_ptr.o)
    0x08000504   0x00000188   Code   RO         2348    .text               c_w.l(__printf_flags_ss_wp.o)
    0x0800068c   0x00000024   Code   RO         2358    .text               c_w.l(strstr.o)
    0x080006b0   0x00000018   Code   RO         2362    .text               c_w.l(strcat.o)
    0x080006c8   0x00000044   Code   RO         2364    .text               c_w.l(rt_memclr.o)
    0x0800070c   0x0000004e   Code   RO         2366    .text               c_w.l(rt_memclr_w.o)
    0x0800075a   0x00000006   Code   RO         2368    .text               c_w.l(heapauxi.o)
    0x08000760   0x00000002   Code   RO         2410    .text               c_w.l(use_no_semi.o)
    0x08000762   0x00000024   Code   RO         2413    .text               c_w.l(_printf_truncate.o)
    0x08000786   0x000000b2   Code   RO         2415    .text               c_w.l(_printf_intcommon.o)
    0x08000838   0x00000028   Code   RO         2417    .text               c_w.l(_printf_charcount.o)
    0x08000860   0x0000041a   Code   RO         2419    .text               c_w.l(_printf_fp_dec.o)
    0x08000c7a   0x00000002   PAD
    0x08000c7c   0x00000030   Code   RO         2421    .text               c_w.l(_printf_char_common.o)
    0x08000cac   0x0000000a   Code   RO         2423    .text               c_w.l(_sputc.o)
    0x08000cb6   0x0000002c   Code   RO         2425    .text               c_w.l(_printf_char.o)
    0x08000ce2   0x00000002   PAD
    0x08000ce4   0x00000024   Code   RO         2427    .text               c_w.l(_printf_char_file.o)
    0x08000d08   0x000000bc   Code   RO         2429    .text               c_w.l(_printf_wctomb.o)
    0x08000dc4   0x0000007c   Code   RO         2432    .text               c_w.l(_printf_longlong_dec.o)
    0x08000e40   0x00000070   Code   RO         2438    .text               c_w.l(_printf_oct_int_ll.o)
    0x08000eb0   0x00000008   Code   RO         2484    .text               c_w.l(rt_locale_intlibspace.o)
    0x08000eb8   0x0000008a   Code   RO         2486    .text               c_w.l(lludiv10.o)
    0x08000f42   0x00000002   PAD
    0x08000f44   0x00000080   Code   RO         2488    .text               c_w.l(_printf_fp_infnan.o)
    0x08000fc4   0x0000002c   Code   RO         2492    .text               c_w.l(_printf_wchar.o)
    0x08000ff0   0x000000dc   Code   RO         2494    .text               c_w.l(bigflt0.o)
    0x080010cc   0x00000008   Code   RO         2519    .text               c_w.l(ferror.o)
    0x080010d4   0x00000040   Code   RO         2523    .text               c_w.l(_wcrtomb.o)
    0x08001114   0x00000008   Code   RO         2532    .text               c_w.l(libspace.o)
    0x0800111c   0x0000004a   Code   RO         2535    .text               c_w.l(sys_stackheap_outer.o)
    0x08001166   0x00000002   PAD
    0x08001168   0x00000010   Code   RO         2537    .text               c_w.l(rt_ctype_table.o)
    0x08001178   0x0000000c   Code   RO         2539    .text               c_w.l(exit.o)
    0x08001184   0x00000080   Code   RO         2541    .text               c_w.l(strcmpv7m.o)
    0x08001204   0x0000003e   Code   RO         2497    CL$$btod_d2e        c_w.l(btod.o)
    0x08001242   0x00000046   Code   RO         2499    CL$$btod_d2e_denorm_low  c_w.l(btod.o)
    0x08001288   0x00000060   Code   RO         2498    CL$$btod_d2e_norm_op1  c_w.l(btod.o)
    0x080012e8   0x00000338   Code   RO         2507    CL$$btod_div_common  c_w.l(btod.o)
    0x08001620   0x000000c6   Code   RO         2504    CL$$btod_e2e        c_w.l(btod.o)
    0x080016e6   0x00000028   Code   RO         2501    CL$$btod_ediv       c_w.l(btod.o)
    0x0800170e   0x00000028   Code   RO         2500    CL$$btod_emul       c_w.l(btod.o)
    0x08001736   0x00000244   Code   RO         2506    CL$$btod_mult_common  c_w.l(btod.o)
    0x0800197a   0x00000002   PAD
    0x0800197c   0x0000011c   Code   RO          706    i.BC28_ALYIOTSenddataAdc  bc28.o
    0x08001a98   0x00000304   Code   RO          707    i.BC28_Init         bc28.o
    0x08001d9c   0x000001bc   Code   RO          708    i.BC28_RegALIYUNIOT  bc28.o
    0x08001f58   0x00000002   Code   RO          170    i.BusFault_Handler  stm32f10x_it.o
    0x08001f5a   0x00000002   PAD
    0x08001f5c   0x0000002c   Code   RO          631    i.CTR_Init          led.o
    0x08001f88   0x0000002c   Code   RO          709    i.Clear_Buffer      bc28.o
    0x08001fb4   0x00000002   Code   RO          171    i.DebugMon_Handler  stm32f10x_it.o
    0x08001fb6   0x00000002   PAD
    0x08001fb8   0x00000020   Code   RO         2020    i.FSMC_NORSRAMCmd   stm32f10x_fsmc.o
    0x08001fd8   0x000000c8   Code   RO         2022    i.FSMC_NORSRAMInit  stm32f10x_fsmc.o
    0x080020a0   0x0000009c   Code   RO         1901    i.GPIO_Init         stm32f10x_gpio.o
    0x0800213c   0x00000004   Code   RO         1908    i.GPIO_ResetBits    stm32f10x_gpio.o
    0x08002140   0x00000004   Code   RO         1909    i.GPIO_SetBits      stm32f10x_gpio.o
    0x08002144   0x00000036   Code   RO          306    i.GPS_Analysis      gps.o
    0x0800217a   0x00000002   PAD
    0x0800217c   0x000002c0   Code   RO            1    i.Gps_Msg_Show      main.o
    0x0800243c   0x00000002   Code   RO          172    i.HardFault_Handler  stm32f10x_it.o
    0x0800243e   0x00000002   PAD
    0x08002440   0x0000003c   Code   RO          411    i.KEY_Init          key.o
    0x0800247c   0x0000006c   Code   RO          431    i.LCD_Clear         lcd.o
    0x080024e8   0x00000134   Code   RO          435    i.LCD_Display_Dir   lcd.o
    0x0800261c   0x0000011c   Code   RO          440    i.LCD_Fast_DrawPoint  lcd.o
    0x08002738   0x0000008c   Code   RO          441    i.LCD_Fill          lcd.o
    0x080027c4   0x00002e18   Code   RO          442    i.LCD_Init          lcd.o
    0x080055dc   0x00000014   Code   RO          444    i.LCD_RD_DATA       lcd.o
    0x080055f0   0x00000018   Code   RO          446    i.LCD_ReadReg       lcd.o
    0x08005608   0x0000003c   Code   RO          447    i.LCD_SSD_BackLightSet  lcd.o
    0x08005644   0x000001a8   Code   RO          448    i.LCD_Scan_Dir      lcd.o
    0x080057ec   0x00000148   Code   RO          449    i.LCD_SetCursor     lcd.o
    0x08005934   0x000000cc   Code   RO          451    i.LCD_ShowChar      lcd.o
    0x08005a00   0x00000054   Code   RO          453    i.LCD_ShowString    lcd.o
    0x08005a54   0x00000014   Code   RO          458    i.LCD_WriteRAM_Prepare  lcd.o
    0x08005a68   0x00000010   Code   RO          459    i.LCD_WriteReg      lcd.o
    0x08005a78   0x00000050   Code   RO          632    i.LED_Init          led.o
    0x08005ac8   0x00000002   Code   RO          173    i.MemManage_Handler  stm32f10x_it.o
    0x08005aca   0x00000002   PAD
    0x08005acc   0x000000f0   Code   RO          307    i.NMEA_BDGSV_Analysis  gps.o
    0x08005bbc   0x0000002a   Code   RO          308    i.NMEA_Comma_Pos    gps.o
    0x08005be6   0x00000002   PAD
    0x08005be8   0x00000060   Code   RO          309    i.NMEA_GNGGA_Analysis  gps.o
    0x08005c48   0x000000a0   Code   RO          310    i.NMEA_GNGSA_Analysis  gps.o
    0x08005ce8   0x000001ec   Code   RO          311    i.NMEA_GNRMC_Analysis  gps.o
    0x08005ed4   0x0000004c   Code   RO          312    i.NMEA_GNVTG_Analysis  gps.o
    0x08005f20   0x000000e8   Code   RO          313    i.NMEA_GPGSV_Analysis  gps.o
    0x08006008   0x00000010   Code   RO          314    i.NMEA_Pow          gps.o
    0x08006018   0x000000c0   Code   RO          315    i.NMEA_Str2num      gps.o
    0x080060d8   0x00000002   Code   RO          174    i.NMI_Handler       stm32f10x_it.o
    0x080060da   0x00000002   PAD
    0x080060dc   0x00000064   Code   RO          886    i.NVIC_Init         misc.o
    0x08006140   0x00000014   Code   RO          887    i.NVIC_PriorityGroupConfig  misc.o
    0x08006154   0x00000002   Code   RO          175    i.PendSV_Handler    stm32f10x_it.o
    0x08006156   0x00000002   PAD
    0x08006158   0x00000018   Code   RO         1636    i.RCC_AHBPeriphClockCmd  stm32f10x_rcc.o
    0x08006170   0x00000018   Code   RO         1637    i.RCC_APB1PeriphClockCmd  stm32f10x_rcc.o
    0x08006188   0x00000018   Code   RO         1638    i.RCC_APB1PeriphResetCmd  stm32f10x_rcc.o
    0x080061a0   0x00000018   Code   RO         1639    i.RCC_APB2PeriphClockCmd  stm32f10x_rcc.o
    0x080061b8   0x00000018   Code   RO         1640    i.RCC_APB2PeriphResetCmd  stm32f10x_rcc.o
    0x080061d0   0x00000094   Code   RO         1647    i.RCC_GetClocksFreq  stm32f10x_rcc.o
    0x08006264   0x00000002   Code   RO          176    i.SVC_Handler       stm32f10x_it.o
    0x08006266   0x00000002   PAD
    0x08006268   0x000000a8   Code   RO          259    i.SetSysClockTo72   system_stm32f10x.o
    0x08006310   0x00000060   Code   RO          316    i.SkyTra_Cfg_Ack_Check  gps.o
    0x08006370   0x00000058   Code   RO          317    i.SkyTra_Cfg_Prt    gps.o
    0x080063c8   0x0000003c   Code   RO          318    i.SkyTra_Cfg_Rate   gps.o
    0x08006404   0x00000050   Code   RO          319    i.SkyTra_Cfg_Tp     gps.o
    0x08006454   0x00000024   Code   RO          320    i.SkyTra_Send_Date  gps.o
    0x08006478   0x00000018   Code   RO          890    i.SysTick_CLKSourceConfig  misc.o
    0x08006490   0x00000002   Code   RO          177    i.SysTick_Handler   stm32f10x_it.o
    0x08006492   0x00000002   PAD
    0x08006494   0x00000050   Code   RO          261    i.SystemInit        system_stm32f10x.o
    0x080064e4   0x0000003c   Code   RO         2129    i.TIM4_IRQHandler   usmart.o
    0x08006520   0x00000038   Code   RO          649    i.TIM7_IRQHandler   timer.o
    0x08006558   0x00000060   Code   RO          650    i.TIM7_Int_Init     timer.o
    0x080065b8   0x00000006   Code   RO         1110    i.TIM_ClearFlag     stm32f10x_tim.o
    0x080065be   0x00000006   Code   RO         1111    i.TIM_ClearITPendingBit  stm32f10x_tim.o
    0x080065c4   0x00000014   Code   RO         1116    i.TIM_Cmd           stm32f10x_tim.o
    0x080065d8   0x00000004   Code   RO         1135    i.TIM_GetCounter    stm32f10x_tim.o
    0x080065dc   0x0000000e   Code   RO         1136    i.TIM_GetFlagStatus  stm32f10x_tim.o
    0x080065ea   0x00000018   Code   RO         1137    i.TIM_GetITStatus   stm32f10x_tim.o
    0x08006602   0x00000010   Code   RO         1141    i.TIM_ITConfig      stm32f10x_tim.o
    0x08006612   0x00000004   Code   RO         1175    i.TIM_SetAutoreload  stm32f10x_tim.o
    0x08006616   0x00000004   Code   RO         1181    i.TIM_SetCounter    stm32f10x_tim.o
    0x0800661a   0x00000002   PAD
    0x0800661c   0x0000009c   Code   RO         1187    i.TIM_TimeBaseInit  stm32f10x_tim.o
    0x080066b8   0x00000060   Code   RO         2130    i.Timer4_Init       usmart.o
    0x08006718   0x00000024   Code   RO          748    i.UART2_send_byte   usart2.o
    0x0800673c   0x00000064   Code   RO          844    i.USART1_IRQHandler  usart.o
    0x080067a0   0x00000028   Code   RO          749    i.USART2_IRQHandler  usart2.o
    0x080067c8   0x00000068   Code   RO          668    i.USART3_IRQHandler  usart3.o
    0x08006830   0x00000014   Code   RO          926    i.USART_Cmd         stm32f10x_usart.o
    0x08006844   0x00000074   Code   RO          928    i.USART_DeInit      stm32f10x_usart.o
    0x080068b8   0x0000000e   Code   RO          929    i.USART_GetFlagStatus  stm32f10x_usart.o
    0x080068c6   0x0000003e   Code   RO          930    i.USART_GetITStatus  stm32f10x_usart.o
    0x08006904   0x00000030   Code   RO          932    i.USART_ITConfig    stm32f10x_usart.o
    0x08006934   0x000000ac   Code   RO          933    i.USART_Init        stm32f10x_usart.o
    0x080069e0   0x00000008   Code   RO          940    i.USART_ReceiveData  stm32f10x_usart.o
    0x080069e8   0x00000008   Code   RO          943    i.USART_SendData    stm32f10x_usart.o
    0x080069f0   0x00000020   Code   RO          750    i.Uart2_SendStr     usart2.o
    0x08006a10   0x00000002   Code   RO          178    i.UsageFault_Handler  stm32f10x_it.o
    0x08006a12   0x00000028   Code   RO         2530    i.__ARM_fpclassify  m_ws.l(fpclassify.o)
    0x08006a3a   0x0000000e   Code   RO         2341    i._is_digit         c_w.l(__printf_wp.o)
    0x08006a48   0x00000002   Code   RO          845    i._sys_exit         usart.o
    0x08006a4a   0x00000002   PAD
    0x08006a4c   0x0000003c   Code   RO          790    i.delay_init        delay.o
    0x08006a88   0x00000034   Code   RO          791    i.delay_ms          delay.o
    0x08006abc   0x00000034   Code   RO          792    i.delay_us          delay.o
    0x08006af0   0x00000018   Code   RO          846    i.fputc             usart.o
    0x08006b08   0x00000304   Code   RO            2    i.main              main.o
    0x08006e0c   0x00000020   Code   RO          751    i.nbiot_receive_process_event  usart2.o
    0x08006e2c   0x00000004   Code   RO         2131    i.read_addr         usmart.o
    0x08006e30   0x000000a8   Code   RO          752    i.uart2_init        usart2.o
    0x08006ed8   0x000000a0   Code   RO          847    i.uart_init         usart.o
    0x08006f78   0x000000cc   Code   RO          670    i.usart3_init       usart3.o
    0x08007044   0x00000094   Code   RO         2132    i.usmart_cmd_rec    usmart.o
    0x080070d8   0x00000260   Code   RO         2133    i.usmart_exe        usmart.o
    0x08007338   0x0000009c   Code   RO         2219    i.usmart_get_aparm  usmart_str.o
    0x080073d4   0x0000002e   Code   RO         2220    i.usmart_get_cmdname  usmart_str.o
    0x08007402   0x00000002   PAD
    0x08007404   0x00000168   Code   RO         2221    i.usmart_get_fname  usmart_str.o
    0x0800756c   0x000000d0   Code   RO         2222    i.usmart_get_fparam  usmart_str.o
    0x0800763c   0x00000024   Code   RO         2223    i.usmart_get_parmpos  usmart_str.o
    0x08007660   0x00000038   Code   RO         2134    i.usmart_get_runtime  usmart.o
    0x08007698   0x00000028   Code   RO         2135    i.usmart_init       usmart.o
    0x080076c0   0x00000010   Code   RO         2224    i.usmart_pow        usmart_str.o
    0x080076d0   0x00000030   Code   RO         2136    i.usmart_reset_runtime  usmart.o
    0x08007700   0x000000a4   Code   RO         2137    i.usmart_scan       usmart.o
    0x080077a4   0x00000010   Code   RO         2225    i.usmart_search_nextc  usmart_str.o
    0x080077b4   0x000000a0   Code   RO         2226    i.usmart_str2num    usmart_str.o
    0x08007854   0x00000018   Code   RO         2227    i.usmart_strcmp     usmart_str.o
    0x0800786c   0x00000012   Code   RO         2228    i.usmart_strcopy    usmart_str.o
    0x0800787e   0x00000012   Code   RO         2229    i.usmart_strlen     usmart_str.o
    0x08007890   0x00000670   Code   RO         2138    i.usmart_sys_cmd_exe  usmart.o
    0x08007f00   0x00000004   Code   RO         2139    i.write_addr        usmart.o
    0x08007f04   0x0000002c   Code   RO         2526    locale$$code        c_w.l(lc_numeric_c.o)
    0x08007f30   0x0000002c   Code   RO         2597    locale$$code        c_w.l(lc_ctype_c.o)
    0x08007f5c   0x0000005a   Code   RO         2372    x$fpl$dfixu         fz_ws.l(dfixu.o)
    0x08007fb6   0x00000026   Code   RO         2376    x$fpl$dfltu         fz_ws.l(dflt_clz.o)
    0x08007fdc   0x00000154   Code   RO         2382    x$fpl$dmul          fz_ws.l(dmul.o)
    0x08008130   0x0000009c   Code   RO         2457    x$fpl$dnaninf       fz_ws.l(dnaninf.o)
    0x080081cc   0x0000000c   Code   RO         2459    x$fpl$dretinf       fz_ws.l(dretinf.o)
    0x080081d8   0x00000056   Code   RO         2384    x$fpl$f2d           fz_ws.l(f2d.o)
    0x0800822e   0x00000002   PAD
    0x08008230   0x000000c4   Code   RO         2386    x$fpl$fadd          fz_ws.l(faddsub_clz.o)
    0x080082f4   0x00000184   Code   RO         2393    x$fpl$fdiv          fz_ws.l(fdiv.o)
    0x08008478   0x0000003e   Code   RO         2396    x$fpl$ffixu         fz_ws.l(ffixu.o)
    0x080084b6   0x00000002   PAD
    0x080084b8   0x00000030   Code   RO         2401    x$fpl$fflt          fz_ws.l(fflt_clz.o)
    0x080084e8   0x00000026   Code   RO         2400    x$fpl$ffltu         fz_ws.l(fflt_clz.o)
    0x0800850e   0x00000002   PAD
    0x08008510   0x00000102   Code   RO         2406    x$fpl$fmul          fz_ws.l(fmul.o)
    0x08008612   0x0000008c   Code   RO         2461    x$fpl$fnaninf       fz_ws.l(fnaninf.o)
    0x0800869e   0x0000000a   Code   RO         2463    x$fpl$fretinf       fz_ws.l(fretinf.o)
    0x080086a8   0x000000ea   Code   RO         2388    x$fpl$fsub          fz_ws.l(faddsub_clz.o)
    0x08008792   0x00000004   Code   RO         2408    x$fpl$printf1       fz_ws.l(printf1.o)
    0x08008796   0x00000000   Code   RO         2465    x$fpl$usenofp       fz_ws.l(usenofp.o)
    0x08008796   0x00000002   PAD
    0x08008798   0x00000024   Data   RO          321    .constdata          gps.o
    0x080087bc   0x000017c0   Data   RO          462    .constdata          lcd.o
    0x08009f7c   0x00000028   Data   RO         2329    .constdata          c_w.l(_printf_hex_int_ll_ptr.o)
    0x08009fa4   0x00000011   Data   RO         2349    .constdata          c_w.l(__printf_flags_ss_wp.o)
    0x08009fb5   0x00000003   PAD
    0x08009fb8   0x00000008   Data   RO         2430    .constdata          c_w.l(_printf_wctomb.o)
    0x08009fc0   0x00000094   Data   RO         2495    .constdata          c_w.l(bigflt0.o)
    0x0800a054   0x00000015   Data   RO            4    .conststring        main.o
    0x0800a069   0x00000003   PAD
    0x0800a06c   0x00000028   Data   RO         2140    .conststring        usmart.o
    0x0800a094   0x00000094   Data   RO         2205    .conststring        usmart_config.o
    0x0800a128   0x00000020   Data   RO         2671    Region$$Table       anon$$obj.o
    0x0800a148   0x0000001c   Data   RO         2525    locale$$data        c_w.l(lc_numeric_c.o)
    0x0800a164   0x00000110   Data   RO         2596    locale$$data        c_w.l(lc_ctype_c.o)


    Execution Region RW_IRAM1 (Base: 0x20000000, Size: 0x000012b0, Max: 0x00010000, ABSOLUTE, COMPRESSED[0x00000074])

    Base Addr    Size         Type   Attr      Idx    E Section Name        Object

    0x20000000   0x00000010   Data   RW            5    .data               main.o
    0x20000010   0x00000014   Data   RW          262    .data               system_stm32f10x.o
    0x20000024   0x00000004   Data   RW          463    .data               lcd.o
    0x20000028   0x00000002   Data   RW          672    .data               usart3.o
    0x2000002a   0x00000002   PAD
    0x2000002c   0x0000000c   Data   RW          715    .data               bc28.o
    0x20000038   0x00000004   Data   RW          793    .data               delay.o
    0x2000003c   0x00000002   Data   RW          849    .data               usart.o
    0x2000003e   0x00000002   PAD
    0x20000040   0x00000004   Data   RW          850    .data               usart.o
    0x20000044   0x00000014   Data   RW         1667    .data               stm32f10x_rcc.o
    0x20000058   0x0000001c   Data   RW         2141    .data               usmart.o
    0x20000074   0x00000028   Data   RW         2206    .data               usmart_config.o
    0x2000009c   0x000000f4   Data   RW         2207    .data               usmart_config.o
    0x20000190   0x00000332   Zero   RW            3    .bss                main.o
    0x200004c2   0x0000000e   Zero   RW          461    .bss                lcd.o
    0x200004d0   0x000004b0   Zero   RW          671    .bss                usart3.o
    0x20000980   0x00000100   Zero   RW          710    .bss                bc28.o
    0x20000a80   0x00000108   Zero   RW          753    .bss                usart2.o
    0x20000b88   0x000000c8   Zero   RW          848    .bss                usart.o
    0x20000c50   0x00000060   Zero   RW         2533    .bss                c_w.l(libspace.o)
    0x20000cb0   0x00000200   Zero   RW          300    HEAP                startup_stm32f10x_hd.o
    0x20000eb0   0x00000400   Zero   RW          299    STACK               startup_stm32f10x_hd.o


==============================================================================

Image component sizes


      Code (inc. data)   RO Data    RW Data    ZI Data      Debug   Object Name

      1544        650          0         12        256      18514   bc28.o
         0          0          0          0          0         32   core_cm3.o
       164         26          0          4          0       1507   delay.o
      1960         90         36          0          0       9439   gps.o
        60          8          0          0          0        463   key.o
     13820        172       6080          4         14      49920   lcd.o
       124         16          0          0          0        926   led.o
      1476        508         21         16        818     265293   main.o
       144         16          0          0          0       1837   misc.o
        64         26        304          0       1536        772   startup_stm32f10x_hd.o
       232          6          0          0          0       1717   stm32f10x_fsmc.o
       164          0          0          0          0       2632   stm32f10x_gpio.o
        18          0          0          0          0       3414   stm32f10x_it.o
       268         46          0         20          0       5736   stm32f10x_rcc.o
       254         42          0          0          0       6343   stm32f10x_tim.o
       448         26          0          0          0       6028   stm32f10x_usart.o
       248         24          0         20          0       1601   system_stm32f10x.o
       152         14          0          0          0       1046   timer.o
       286         26          0          6        200       3912   usart.o
       308         28          0          0        264       3277   usart2.o
       308         32          0          2       1200       1954   usart3.o
      2876       1332         40         28          0       6934   usmart.o
         0          0        148        284          0       1484   usmart_config.o
      1058         20          0          0          0       7223   usmart_str.o

    ----------------------------------------------------------------------
     26002       3108       6664        400       4288     402004   Object Totals
         0          0         32          0          0          0   (incl. Generated)
        26          0          3          4          0          0   (incl. Padding)

    ----------------------------------------------------------------------

      Code (inc. data)   RO Data    RW Data    ZI Data      Debug   Library Member Name

        24          4          0          0          0         84   __2printf.o
        44          6          0          0          0         84   __2sprintf.o
        90          0          0          0          0          0   __dczerorl2.o
         8          0          0          0          0         68   __main.o
       392          4         17          0          0         92   __printf_flags_ss_wp.o
        14          0          0          0          0         68   __printf_wp.o
         0          0          0          0          0          0   __rtentry.o
        12          0          0          0          0          0   __rtentry2.o
         6          0          0          0          0          0   __rtentry4.o
        52          8          0          0          0          0   __scatter.o
        28          0          0          0          0          0   __scatter_zi.o
         6          0          0          0          0          0   _printf_a.o
         6          0          0          0          0          0   _printf_c.o
        44          0          0          0          0        108   _printf_char.o
        48          6          0          0          0         96   _printf_char_common.o
        36          4          0          0          0         80   _printf_char_file.o
        40          0          0          0          0         68   _printf_charcount.o
         6          0          0          0          0          0   _printf_d.o
       120         16          0          0          0         92   _printf_dec.o
         6          0          0          0          0          0   _printf_e.o
         6          0          0          0          0          0   _printf_f.o
      1050          0          0          0          0        216   _printf_fp_dec.o
       128         16          0          0          0         84   _printf_fp_infnan.o
         6          0          0          0          0          0   _printf_g.o
       148          4         40          0          0        160   _printf_hex_int_ll_ptr.o
         6          0          0          0          0          0   _printf_i.o
       178          0          0          0          0         88   _printf_intcommon.o
        10          0          0          0          0          0   _printf_l.o
         6          0          0          0          0          0   _printf_lc.o
        10          0          0          0          0          0   _printf_ll.o
         6          0          0          0          0          0   _printf_lld.o
         6          0          0          0          0          0   _printf_lli.o
         6          0          0          0          0          0   _printf_llo.o
         6          0          0          0          0          0   _printf_llu.o
         6          0          0          0          0          0   _printf_llx.o
       124         16          0          0          0         92   _printf_longlong_dec.o
         6          0          0          0          0          0   _printf_ls.o
         6          0          0          0          0          0   _printf_n.o
         6          0          0          0          0          0   _printf_o.o
       112          8          0          0          0        124   _printf_oct_int_ll.o
         6          0          0          0          0          0   _printf_p.o
        78          0          0          0          0        108   _printf_pad.o
         0          0          0          0          0          0   _printf_percent.o
         4          0          0          0          0          0   _printf_percent_end.o
         6          0          0          0          0          0   _printf_s.o
        82          0          0          0          0         80   _printf_str.o
        36          0          0          0          0         84   _printf_truncate.o
         6          0          0          0          0          0   _printf_u.o
        44          0          0          0          0        108   _printf_wchar.o
       188          6          8          0          0         92   _printf_wctomb.o
         6          0          0          0          0          0   _printf_x.o
        10          0          0          0          0         68   _sputc.o
        64          0          0          0          0         92   _wcrtomb.o
       220          4        148          0          0         96   bigflt0.o
      1910        128          0          0          0        672   btod.o
        24          4          0          0          0         84   c89printf.o
        12          0          0          0          0         72   exit.o
         8          0          0          0          0         68   ferror.o
         6          0          0          0          0        152   heapauxi.o
        44         10        272          0          0         76   lc_ctype_c.o
        44         10         28          0          0         76   lc_numeric_c.o
         2          0          0          0          0          0   libinit.o
        30          0          0          0          0          0   libinit2.o
         2          0          0          0          0          0   libshutdown.o
         2          0          0          0          0          0   libshutdown2.o
         8          4          0          0         96         68   libspace.o
       138          0          0          0          0         80   lludiv10.o
        16          4          0          0          0         76   rt_ctype_table.o
         8          4          0          0          0         68   rt_locale_intlibspace.o
        68          0          0          0          0         68   rt_memclr.o
        78          0          0          0          0         80   rt_memclr_w.o
         2          0          0          0          0          0   rtexit.o
        10          0          0          0          0          0   rtexit2.o
        24          0          0          0          0         68   strcat.o
       128          0          0          0          0         68   strcmpv7m.o
        36          0          0          0          0         80   strstr.o
        74          0          0          0          0         80   sys_stackheap_outer.o
         2          0          0          0          0         68   use_no_semi.o
         2          0          0          0          0         68   use_no_semi_2.o
        90          4          0          0          0         92   dfixu.o
        38          0          0          0          0         68   dflt_clz.o
       340         12          0          0          0        104   dmul.o
       156          4          0          0          0         92   dnaninf.o
        12          0          0          0          0         68   dretinf.o
        86          4          0          0          0         84   f2d.o
       430          8          0          0          0        168   faddsub_clz.o
       388         76          0          0          0         96   fdiv.o
        62          4          0          0          0         84   ffixu.o
        86          0          0          0          0        136   fflt_clz.o
       258          4          0          0          0         84   fmul.o
       140          4          0          0          0         84   fnaninf.o
        10          0          0          0          0         68   fretinf.o
         4          0          0          0          0         68   printf1.o
         0          0          0          0          0          0   usenofp.o
        40          0          0          0          0         68   fpclassify.o

    ----------------------------------------------------------------------
      8406        386        516          0         96       5768   Library Totals
        24          0          3          0          0          0   (incl. Padding)

    ----------------------------------------------------------------------

      Code (inc. data)   RO Data    RW Data    ZI Data      Debug   Library Name

      6242        266        513          0         96       4404   c_w.l
      2100        120          0          0          0       1296   fz_ws.l
        40          0          0          0          0         68   m_ws.l

    ----------------------------------------------------------------------
      8406        386        516          0         96       5768   Library Totals

    ----------------------------------------------------------------------

==============================================================================


      Code (inc. data)   RO Data    RW Data    ZI Data      Debug   

     34408       3494       7180        400       4384     398564   Grand Totals
     34408       3494       7180        116       4384     398564   ELF Image Totals (compressed)
     34408       3494       7180        116          0          0   ROM Totals

==============================================================================

    Total RO  Size (Code + RO Data)                41588 (  40.61kB)
    Total RW  Size (RW Data + ZI Data)              4784 (   4.67kB)
    Total ROM Size (Code + RO Data + RW Data)      41704 (  40.73kB)

==============================================================================

